:020000040001F9
:10F00000D0CF002015F401001DF401001FF4010011
:10F0100021F4010023F4010025F4010000000000A8
:10F0200000000000000000000000000027F40100C4
:10F0300029F40100000000002BF401002DF4010070
:10F04000E95602002FF401002FF40100015E0200D6
:10F050002FF401002FF40100C5540200C158020032
:10F060002FF401002FF401002FF401002FF4010010
:10F070002FF401002FF401002FF401002FF4010000
:10F080002FF40100115802002FF401002FF40100A9
:10F09000E55E02002FF40100E95E02002FF401009A
:10F0A0002FF401002FF401002FF401002FF40100D0
:10F0B00071570200455602000000000000000000E9
:10F0C0002FF401002FF401002FF401002FF40100B0
:10F0D0002FF401002FF401002FF4010000000000C4
:10F0E0000000000000000000000000000000000020
:10F0F0000000000000000000000000000000000010
:10F1000000000000000000000000000000000000FF
:10F1100000000000000000000000000000000000EF
:10F40000DFF80CD006F020F800480047F590030024
:10F41000D0CF00200648804706480047FEE7FEE7B9
:10F42000FEE7FEE7FEE7FEE7FEE7FEE7FEE7FEE7B4
:10F430007D5F020001F4010000209FEDFE0AFE4AFC
:10F44000DFEDFE0A02EB8001401C81ED080AC0B22C
:10F45000C1ED0B0A0328F5D37047F74A002002EBF1
:10F460008001D1ED080A91ED2D0AF4EEC00AF1EE0B
:10F4700010FA01D281ED080AD1ED0B0AF4EEC00AB0
:10F48000F1EE10FA01DD81ED0B0A401CC0B2032839
:10F49000E5D370473EB50B46B0F84810090400911B
:10F4A000B0F84A10009A09040191B0F84C10090410
:10F4B0000291E1494C6E121B0092019A8C6E121B54
:10F4C0000192029AC96E511A0291816EB0F84400FD
:10F4D0006A4680B215F0F0FB3EBDF0B5D64F002471
:10F4E0002546D7F894208DB02E46012A01D1C7F8C1
:10F4F000946009A9FFF7CEFF05A815F0FDFD059959
:10F5000009986022A0EBA130099006990A98A0EB17
:10F51000A1300A9007990B98A0EBA130C8490B9035
:10F52000081F05F058FB0DF1240CC5489CE80E009F
:10F53000143080E80E00684615F09AFEC04960223B
:10F540006C31081F05F047FBBD489DE80E00803078
:10F5500080E80E0000210922D7F82C04401CC7F8CF
:10F560002C0401EB410007EB8000DDF800C0D0F86F
:10F570004C33491C93FBF2F31C44D0F85033092957
:10F5800093FBF2F31D44D0F8543393FBF2F31E4483
:10F59000D0F8B83393FBF2F363440093D0F8BC3354
:10F5A000DDF804C093FBF2F363440193D0F8C00389
:10F5B000029B90FBF2F018440290CDDB002C00DAA5
:10F5C0006442002D00DA6D42002E00DA7642009887
:10F5D000002800DA404200900198002800DA4042FA
:10F5E00001900298002800DA404202900099002021
:10F5F0008C4200DA012001998D4200DA401C029908
:10F600008E4200DA401CD7F82C14092900DB401C7C
:10F6100004280DD197F8240402280BD90146864806
:10F62000D7F82824643016F0C7FD012016F0BEFD7F
:10F630000DB0F0BD16F0ACFDFAE72DE9F0417E4DBE
:10F6400000272DED048B06463C4685F824749FED7B
:10F650007D9B9FED7E8BC5F8287405EB8400D5ED6E
:10F660000F0A90ED330AB4EEE00AF1EE10FA1EDB59
:10F6700095ED140B53EC182B51EC100B05F092FB8D
:10F6800041EC100B07F010FA53EC192B51EC100B56
:10F6900005F010FD0BD295F824040121401C85F8DB
:10F6A0002404D5F82804A1400843C5F82804641CA4
:10F6B000E4B2032CD1D395F82404B8B3002406EBAC
:10F6C000C40090ED000B51EC100B05F0A7FC05EB0E
:10F6D0008401641CE4B24866032CF0D3C5F82C7492
:10F6E000A868042802DA95F82404A86095F8240490
:10F6F00003281BD15749E868884217DC95ED140BA5
:10F7000053EC182B51EC100B05F04CFB41EC100B9B
:10F7100007F0CAF953EC192B51EC100B05F0CAFC99
:10F7200004D2A868032801D10420A8604A492869A6
:10F7300088421DDA4949E868884219DC95ED140BC6
:10F7400053EC182B51EC100B05F02CFB41EC100B7B
:10F7500007F0AAF99FED421B51EC100B53EC112B53
:10F7600005F0A8FC04D2A868042801D10520A860EF
:10F77000BDEC048BBDE8F0812DE9F0412E4C07462D
:10F78000D4F8A404012802D000252846F2E736491F
:10F79000F7EE000AA1F1E800B7EE000A064600F015
:10F7A000BCFD254A3046503202F5AC7101F057F8E5
:10F7B0000500EAD06068401C606094ED140B51ECC9
:10F7C000100B05F02BFCB96E16F033F900EE100AA1
:10F7D000DFED260AB8EEC00A20EE200A10EE100A6D
:10F7E00005F054FCC4E9140194ED6A0B51EC100BC4
:10F7F00005F014FCA06594ED6C0B51EC100B05F0BA
:10F800000DFCE06594ED6E0B51EC100B05F006FC61
:10F81000206694ED680B9FED161B51EC100B53EC1A
:10F82000112B05F05FFCB0D231469FED130AF0EECC
:10F83000400A23E000401CC6F87F002000401C4620
:10F84000488300209A9999999999B93F000000003E
:10F850000000F03FAE47E13D00007A43BC74933CAA
:10F860009CC420B07268913FC081002000008037A6
:10F87000000000000070A740CDCCCC3E084600F050
:10F880004CFD82E7D0ED030A90ED040A002101222D
:10F89000F4EEC00A0223F1EE10FA12DD90ED051A23
:10F8A000F4EEC10AF1EE10FA0BDDB4EEC10A016408
:10F8B000F1EE10FA02DBC0E911237047C0E9113202
:10F8C0007047B4EEE00AF1EE10FA12DD90ED051A81
:10F8D000B4EEC10AF1EE10FA0BDDF4EEC10A0264D7
:10F8E000F1EE10FA02DBC0E911137047C0E91131E3
:10F8F0007047F4EEC00A0364F1EE10FA02DBC0E9CF
:10F9000011127047C0E911217047002319469FED7D
:10F91000FE0AC36400EB8102491C82ED000A82EDFD
:10F92000090A0329F6DB0121C0E91D13704730B530
:10F9300004461420A0650A202066002584F8705033
:10F940002046FFF7E2FF656530BD70B52DED048BF5
:10F9500086B06946FFF79EFD9FEDEC8B1FED3D9A4B
:10F9600000246E4603AD56F8240000EE100A05EBA5
:10F970008400B8EEC00A20EE090A80ED000A20EEED
:10F98000000A10EE100A05F081FB53EC182B05F06D
:10F9900068F941EC180B641C032CE4DBB0EE480A58
:10F9A000F0EE680A08F0C4F9DA4EB0EE408AF0EEE4
:10F9B000608A002455F8240005F068FB53EC182BEE
:10F9C00005F068FA05F0A6FB00EE100A06EB8400CD
:10F9D00000F58060641CD0ED0C0A032C30EE200A88
:10F9E00080ED0C0AE6DBD6F88404401CC6F88404DB
:10F9F0000120C6F8AC0406B0BDEC048B70BD70B538
:10FA000005462DED028B86B004AA03A9684615F0C1
:10FA100039FE9FEDBE8B00246E4606EB840090ED10
:10FA2000000A20EE000A10EE100A05F02FFB53EC3E
:10FA3000182B05F016F941EC180B641C032CECDBB9
:10FA4000B0EE480AF0EE680A08F072F9B0EE408AAB
:10FA5000F0EE608A002456F8240005F017FB53EC02
:10FA6000182B05F017FA05F055FB00EE100A05EB10
:10FA70008400641CD0ED000A032C30EE200A80EDD7
:10FA8000000AE8DB686D401C68650120E86706B085
:10FA9000BDEC028B70BDF0B504460021F7EE001AF4
:10FAA0009FED992A94ED140A04EB8100B8EEC01A78
:10FAB000D0ED000A80EE810AB5EEC00AF1EE10FA30
:10FAC00002DBB0EE401A01E0B1EE401AD0ED060ABA
:10FAD000F5EEC00AF1EE10FA01DAF1EE600A71EE0D
:10FAE000600AC0ED0C0A80ED060A94ED0F1AD0ED05
:10FAF000092A71EE610A00EEA20AC0EE010AC0ED09
:10FB0000090AF5EEC00AF1EE10FA01DAF1EE600A28
:10FB1000C0ED030A491C80ED002A0329C2DB204600
:10FB2000FFF7B0FEE06CB0F57A7F01DA401CE064CC
:10FB300094F8707000210526042303250122206C0F
:10FB4000062F09D2DFE807F00309102B523762674E
:10FB5000A267E16484F87020F0BDE06F0128FBD15A
:10FB6000022084F870000DE004EB8000D4ED190A47
:10FB700090ED030AB4EEE00AF1EE10FA04DB84F82B
:10FB8000703031E0A167F0BDD4ED1A0AB4EEE00A9E
:10FB9000F1EE10FA22D934E06267A267F0BD04EBFF
:10FBA0008000D4ED190A90ED030AB4EEE00AF1EEFC
:10FBB00010FAE4DAF0BD04EB8000D4ED1A0A90EDFF
:10FBC000030AB4EEE00AF1EE10FA07D9006B524EC8
:10FBD000B04206D9216EE06C8842EBDB84F87050AD
:10FBE000DAE784F87030E1646167CBE704EB80000A
:10FBF000D4ED1B0A90ED030AB4EEE00AF1EE10FA20
:10FC0000D8D884F87060E164C6E710B5044600EE09
:10FC1000104AB8EEC00ADFED410A20EE200A9FED3F
:10FC2000401AC0EE010AB6EE000A20EE800A10EE7D
:10FC3000100A05F02BFA41EC100B06F029FE9FED9F
:10FC4000391B51EC100B53EC112B05F0B1F805F0FA
:10FC5000E5F901462F48C0E9204110BD2DE9F04FDC
:10FC600000242DED028B91B0054604940594069472
:10FC7000C06E44F62061274E884206DBD6F880101D
:10FC8000884210D0FFF7C1FF0DE0D6F8482310449A
:10FC9000C6F8480388427DDBE96E814201D0FFF758
:10FCA000B4FFC6F84843286BC6F8B0042846FFF7EF
:10FCB0004CFE06F5906003C8814204DB1B48FFF749
:10FCC000EAFEC6F88444D6F8A804012802D12846E2
:10FCD000FFF703FCD6F8A40401285BD104A815F0B3
:10FCE00005FB9DED040ADDED050A20EE000A00EE9D
:10FCF000A00ADDED060A00EEA00A08F056F886ED2F
:10FD0000030ADFED0B0A15E0000000000000000010
:10FD100000000000F87F0020CDCC4CBD368D274080
:10FD200000247449000000000000D0412884002015
:10FD30000000804620EE200AC149A146ADF82040CF
:10FD4000BDEEC00A099110EE100AADF81C00ADF826
:10FD50001E4007A802F0C8FD684615F045FB316F4C
:10FD6000009815F066FE0446716F019815F061FE6B
:10FD70000444B16F029815F05CFE0444F16F0398DF
:10FD800015F057FE04EB00089DE80F0000240DF16C
:10FD9000340A00E0A2E006F170079FEDAA8A87E826
:10FDA0000F000DF1280B05EB4407A96E37F8480F3B
:10FDB000000415F03EFE00EE100A4AF8240006EB9F
:10FDC0008400B8EEC00A20EE080A80ED050A3888E3
:10FDD00001044BF82410641CE4B2032CE3D39848CC
:10FDE0000AA9E838044600F068FB3168D6F8280311
:10FDF000884273DB95ED390AD6ED360AB8EEC00AB3
:10FE0000F5EEC00A20EE080AF1EE10FA05D070EE09
:10FE1000600AF0EEE00AC6ED370A86ED360AB068F1
:10FE2000062818D2DFE800F0030303030D249FED3A
:10FE3000860AC82086ED0E0AB7EE000A86ED0F0A84
:10FE400008E09FED820A86ED0E0A9FED810A64208C
:10FE500086ED0F0A3064288EC005099812D402F08E
:10FE600052FC05F086F800EE100A5FED530A11E02F
:10FE70009FED780A86ED0E0A9FED770A322086ED17
:10FE80000F0AE7E702F099FB05F073F800EE100A9D
:10FE9000DFED720A982180EE201A86ED041A099887
:10FEA00004F0C0FED6F88410414543DA96ED040A0A
:10FEB000B5EEC00AF1EE10FA3CDDD6ED0E0AB4EE56
:10FEC000E00AF1EE10FA35D2316C7068884206DA39
:10FED0002846FFF751FC002859D00CE056E0604955
:10FEE000D6F8B000884206DB2846FFF745FC00281C
:10FEF0004DD0C6F80490002006EB8001401C91ED27
:10FF0000050AC0B281ED2D0A0328F5D3FFF7A5FA43
:10FF1000002006EB8001401C91ED080AD1ED0B0A90
:10FF2000C0B2032830EE600A81ED330AF1D34D48A8
:10FF3000FFF783FB002006EB8001401C91ED260AB1
:10FF4000D1ED050AC0B2032830EE600AB0EEC00A57
:10FF500081ED290AEFD396ED290AD6ED2A0A002071
:10FF600030EE200AD6ED2B0A30EE200A86ED2C0A60
:10FF700006EB8001401C91ED050AC0B281ED260A16
:10FF80000328F5D3E821204604F04CFE002011B0F0
:10FF9000BDEC028BBDE8F08F10B54FF4976132488D
:10FFA00004F040FE304C0A20206040072067FFF735
:10FFB00043FA04F58660FFF7BAFC2068C4F88004B1
:10FFC0009FED2A0A04F580601E2180ED1B0A9FED3B
:10FFD000280AC4F88C1480ED260A9FED260A80EDCD
:10FFE000250A9FED250A80ED270A192002F02CFF33
:10FFF000002010BD012240F25231AFF29F3015F0C7
:020000040002F8
:10000000DBBFAFF2A73016F061BA10B5FFF7C4FF3F
:10001000002805D1AFF22300BDE8104016F0A8B8C3
:1000200010BD10B5AFF2CB3016F050FAAFF23B0076
:10003000BDE8104016F0B6BA0B4880687047000063
:10004000A8820020000080370080BB440000964357
:100050009A99993F000070423333B33F0050C34731
:10006000CDCC4C3DA0810020F87F00200000004254
:10007000CDCCCC3ECDCC4C3F3333333FFE4880ED2E
:100080003A0A70472DE9F047DFF8EC9300262DED92
:100090000A8B0446B0EE408AF0EE608A8846354608
:1000A0003746D9F8AC0004F07AFF53EC182B05F072
:1000B00001F86FD3D9F8B00004F071FF53EC182B9E
:1000C00005F010F8F5D3B4F90000B4F90610401AA1
:1000D00004F065FF53EC182B04F0ECFF00D201266E
:1000E000B4F90E00B4F91410401A04F058FF53ECA0
:1000F000182B04F0DFFF00D2761CB4F91C00B4F911
:100100002210401A04F04BFF53EC182B04F0D2FFDE
:1001100000D2761C9FEDD90B012E3BDC53EC102B4B
:1001200051EC180B04F044FE8946064649EC180BC6
:10013000B4F90000B4F90610401A04F030FF53EC93
:10014000182B04F0CFFF00D20125B4F90E00B4F94A
:10015000141049EC186B401A04F021FF53EC182BD3
:1001600004F0C0FF00D26D1CB4F91C00B4F92210D9
:1001700049EC186B401A04F012FF53EC182B04F0F2
:10018000B1FF00D26D1C002D05DD0220BDEC0A8BF5
:10019000BDE8F08765E000269FEDBACB06EB460987
:1001A00004EB8905B5F90A0004F0F9FE98ED048B1B
:1001B00053EC182B04F0F6FD41EC190BB5F90400D3
:1001C00004F0EDFE53EC182B04F0ECFD53EC192B6E
:1001D00004F0EEFD41EC190BB5F9080004F0DFFE68
:1001E00098ED028B53EC182B04F0DCFD41EC1A0B5C
:1001F000B5F9020004F0D3FE53EC182B04F0D2FD45
:1002000053EC1A2B04F0D4FD41EC1A0BB5F906009F
:1002100004F0C5FE98ED008B53EC182B04F0C2FDE2
:1002200041EC1B0B34F9290004F0B9FE53EC182BF8
:1002300004F0B8FD53EC1B2B04F0BAFD53EC1A2B61
:1002400004F00FFD53EC192B04F00BFD53EC1C2BA9
:1002500004F030FF00D27F1C761C032E9EDB022FA1
:1002600001DA012092E7002090E788490A684B688C
:10027000D00180EAD20080EA031048608B68520304
:1002800080EAC30382EA5312520282EAD0208B60D2
:100290000860704710B52DED048BF0EE408AFFF733
:1002A000E4FF00EE100AB8EE400ADFED790A20EE16
:1002B000200A9FED789A20EE090A06F04DFBB0EE79
:1002C000408AFFF7D2FF00EE100AB8EE400A20EE97
:1002D000090AB5EEC00AF1EE10FA01D1B7EE000A34
:1002E00010EE100A04F0D2FE41EC100B06F0E8FB11
:1002F0009FED691B51EC100B53EC112B04F058FDD2
:1003000004F008FF00EE100A07F04FFD20EE280A67
:1003100020EE080ABDEC048B10BD2DE9F041054626
:100320002DED048BB0EE608AF0EE408A0F4618EE99
:10033000100A04F0ABFE97ED301B53EC112B04F0C8
:1003400037FD41EC190B18EE900A04F09FFE95ED75
:10035000301B53EC112B04F02BFD53EC192B04F044
:1003600080FC0024C5E9300118EE100A04F08EFE6E
:1003700007EBC40898ED001B53EC112B04F018FD9B
:1003800041EC190B18EE900A04F080FE05EBC40650
:1003900096ED001B53EC112B04F00AFD53EC192BC6
:1003A00004F05FFCC6E9000118EE100A04F06EFECE
:1003B00098ED241B53EC112B04F0FAFC41EC190BC3
:1003C00018EE900A04F062FE96ED241B53EC112BFC
:1003D00004F0EEFC53EC192B04F043FC641CC6E95A
:1003E0002401062CC0DB002418EE100A04F04EFE97
:1003F00041EC100B07EBC40090ED121B51EC100BFD
:1004000053EC112B04F0D4FC41EC190B18EE900ABC
:1004100004F03CFE05EBC40696ED121B53EC112BC9
:1004200004F0C6FC53EC192B04F01BFC641CC6E959
:100430001201092CD8DB002418EE100A04F026FE65
:1004400041EC100B07EBC40090ED0C1B51EC100BB2
:1004500053EC112B04F0ACFC41EC190B18EE900A94
:1004600004F014FE05EBC40696ED0C1B53EC112BA7
:1004700004F09EFC14E000006887002000000000EB
:10048000000004400000000000000000784200204E
:10049000DB0FC9400000802F00000000000000C0FA
:1004A00053EC192B04F0DDFB641CC6E90C01032C92
:1004B000C2DBBDEC048BBDE8F0812DE9F04F0446B2
:1004C0002DED068B83B00D46086804F068FD41EC05
:1004D0001A0B686804F063FD41EC190BA86804F07E
:1004E0005EFD41EC180B94ED300B9FEDFE1B51ECC3
:1004F000100B53EC112B04F0B4FBC4E9300194ED64
:100500000C0B53EC1A2B51EC100B04F0AAFBC4E9B2
:100510000C0194ED0E0B53EC192B51EC100B04F065
:10052000A0FBC4E90E0194ED100B53EC182B51EC19
:10053000100B04F096FBC4E9100153EC1A2B51EC9C
:100540001A0B04F035FC029194ED001B064653ECA7
:10055000112B04F086FBC4E9000153EC192B51EC7C
:100560001A0B04F025FC894649EC100B94ED021B94
:10057000054653EC112B51EC100B04F072FBC4E94F
:10058000020153EC182B51EC1A0B04F011FC8B46B2
:100590004BEC100B94ED041B804653EC112B51ECEB
:1005A000100B04F05EFBC4E9040153EC192B51EC71
:1005B000190B04F0FDFB019194ED061B074653EC6B
:1005C000112B04F04EFBC4E9060153EC182B51EC3F
:1005D000190B04F0EDFB009194ED081B824653ECDF
:1005E000112B04F03EFBC4E9080153EC182B51EC2D
:1005F000180B04F0DDFB94ED0A1B53EC112B04F0F7
:1006000030FBC4E90A01029953EC1A2B41EC106B40
:1006100051EC100B04F0CCFB94ED121B53EC112B9E
:1006200004F01FFB49EC105BC4E9120153EC192BD9
:1006300051EC100B04F0BCFB94ED141B53EC112B8C
:1006400004F00FFB4BEC108BC4E9140153EC182B96
:1006500051EC100B04F0ACFB94ED161B53EC112B7A
:1006600004F0FFFA49EC105BC4E9160153EC1A2BB5
:1006700051EC100B04F09CFB94ED181B53EC112B68
:1006800004F0EFFAC4E91801019953EC192B41EC7D
:10069000107B51EC100B04F08BFB94ED1A1B53EC08
:1006A000112B04F0DEFAC4E91A010099554641EC19
:1006B00010AB0E4653EC182B51EC100B04F078FBEA
:1006C00094ED1C1B53EC112B04F0CBFAC4E91C0174
:1006D00053EC1A2B51EC180B04F06AFB53EC1A2B59
:1006E00004F066FB94ED1E1B53EC112B04F0B9FAD9
:1006F00046EC105BC4E91E0153EC192B51EC100BB6
:1007000004F056FB94ED201B53EC112B04F0A9FAD6
:10071000C4E9200153EC182B51EC180B04F048FBF2
:10072000894649EC100B074653EC182B51EC100B83
:1007300004F03EFB94ED221B53EC112B04F091FAD4
:10074000C4E9220153EC1A2B51EC1A0B04F030FBD4
:10075000884648EC100B054653EC1A2B51EC100B55
:1007600004F026FB53EC1A2B04F022FB94ED241B1F
:1007700053EC112B04F075FAC4E9240153EC192B46
:1007800051EC190B04F014FB8A464AEC100B064698
:1007900053EC192B51EC100B04F00AFB53EC192B02
:1007A00004F006FB94ED261B53EC112B04F059FAD0
:1007B00049EC107BC4E9260153EC182B51EC100BCB
:1007C00004F0F6FA53EC182B04F0F2FA94ED281B1F
:1007D00053EC112B04F045FA48EC105BC4E92801F6
:1007E00053EC192B51EC100B04F0E2FA53EC192BDB
:1007F00004F0DEFA94ED2A1B53EC112B04F031FACD
:1008000048EC105BC4E92A0153EC182B51EC100B97
:1008100004F0CEFA53EC182B04F0CAFA94ED2C1B1A
:1008200053EC112B04F01DFA4AEC106BC4E92C01B7
:1008300053EC182B51EC100B04F0BAFA53EC182BB4
:1008400004F0B6FA94ED2E1B53EC112B04F009FAC8
:10085000C4E92E0103B0BDEC068BBDE8F08F2DE995
:10086000F04F93462DED108B0D46044693B090ED5E
:100870000CEB53EC1E2B51EC1E0B04F099FA94ED8B
:10088000000B41EC190B8DED080B94ED308B53EC04
:10089000102B51EC180B04F08BFA53EC192B04F0CD
:1008A00081FA94ED0EDB41EC1F0B53EC1D2B51EC48
:1008B0001D0B04F07DFA94ED060B41EC190B8DED48
:1008C000060B53EC102B51EC180B04F071FA53EC9F
:1008D000192B04F067FA41EC100B8DED040B94ED2D
:1008E00010CB03E0000000000000F03F53EC1C2B95
:1008F00051EC1C0B04F05CFA94ED0A0B41EC190B63
:100900008DED020B53EC102B51EC180B04F050FA48
:1009100053EC192B04F046FA41EC110B53EC1D2B50
:100920008DED001B51EC1E0B04F042FA94ED020B0E
:1009300041EC190B53EC102B51EC180B04F038FA66
:1009400053EC192B04F02EFA41EC1B0B53EC1C2B2F
:1009500051EC1E0B04F02CFA94ED040B41EC190B36
:1009600053EC102B51EC180B04F022FA53EC192B1A
:1009700004F018FA41EC1A0B53EC1C2B51EC1D0B34
:1009800004F016FA94ED080B41EC190B53EC102B04
:1009900051EC180B04F00CFA53EC192B04F002FA8A
:1009A0009DED020B41EC190B53EC102B51EC1E0B7F
:1009B00004F0FEF941EC110B51EC180B8DED101BFE
:1009C00094ED160B53EC102B04F0F2F941EC110BE3
:1009D00051EC1E0B8DED0E1B9DED060B53EC102BF9
:1009E00004F0E6F941EC110B51EC180B8DED0C1BEA
:1009F00094ED140B53EC102B04F0DAF941EC110BCD
:100A000051EC1E0B8DED0A1B9DED080B53EC102BCA
:100A100004F0CEF994ED120B41EC1E0B53EC102BAD
:100A200051EC180B04F0C4F953EC1E2B04F0BAF986
:100A30009DED0A1B53EC112B04F013F99DED0C1BDB
:100A400053EC112B04F0AEF99DED0E1B53EC112B62
:100A500004F007F99DED101B53EC112B04F0A2F9E3
:100A60009FEDFE1B53EC112B04F0A2F99DED020B40
:100A700041EC1E0B53EC102B51EC1D0B04F098F9BC
:100A800041EC110B51EC180B8DED101B94ED1C0B70
:100A900053EC102B04F08CF941EC110B51EC1D0BB5
:100AA0008DED0E1B9DED060B53EC102B04F080F921
:100AB00041EC110B51EC180B8DED0C1B94ED1A0B46
:100AC00053EC102B04F074F941EC110B51EC1D0B9D
:100AD0008DED0A1B9DED080B53EC102B04F068F90B
:100AE00094ED180B41EC1D0B53EC102B51EC180B33
:100AF00004F05EF953EC1D2B04F054F99DED0A1B34
:100B000053EC112B04F0ADF89DED0C1B53EC112BA5
:100B100004F048F99DED0E1B53EC112B04F0A1F8E5
:100B20009DED101B53EC112B04F03CF99FEDCB1BFA
:100B300053EC112B04F03CF99DED020B41EC1D0B25
:100B400053EC102B51EC1C0B04F032F941EC110B5F
:100B500051EC180B8DED021B94ED220B53EC102B76
:100B600004F026F941EC110B51EC1C0B8DED0A1B26
:100B70009DED060B53EC102B04F01AF941EC110B10
:100B800051EC180B8DED0C1B94ED200B53EC102B3E
:100B900004F00EF941EC110B51EC1C0B8DED061B12
:100BA0009DED080B53EC102B04F002F994ED1E0B95
:100BB00041EC1C0B53EC102B51EC180B04F0F8F823
:100BC00053EC1C2B04F0EEF89DED061B53EC112B9F
:100BD00004F047F89DED0C1B53EC112B04F0E2F8E8
:100BE0009DED0A1B53EC112B04F03BF89DED021B0D
:100BF00053EC112B04F0D6F89FED981B53EC112BFE
:100C000004F0D6F89DED040B41EC180B53EC102BBF
:100C100051EC1F0B04F0CCF810919DED001B8246A7
:100C200053EC112B04F0C4F841EC110B53EC192BCD
:100C30008DED0A1B51EC1F0B04F0BAF853EC192B85
:100C400004F0B6F841EC110B53EC1A2B8DED081B98
:100C50009DED040B51EC100B04F0AAF8814653EC07
:100C60001A2B119104F0A4F841EC110B8DED061B29
:100C70009FED7C0B51EC1B0B53EC102B04F098F800
:100C800053EC1A2B04F094F853EC192B04F090F861
:100C90009DED001B41EC1C0B53EC1B2B51EC110B7D
:100CA00004F086F8074653EC1B2B029104F080F801
:100CB00053EC1C2B04F076F89DED061B53EC112B26
:100CC00003F0CFFF9DED081B53EC112B03F0C9FF80
:100CD0009DED0A1B53EC112B04F064F841EC1C0B46
:100CE0009FED620B53EC102B04F0E4F97DD053EC34
:100CF000192B51EC1B0B04F05BF853EC182B04F090
:100D000057F841EC110B53EC1D2B8DED0E1B029986
:100D100041EC107B51EC100B04F04AF841EC110B44
:100D20008DED0C1B9DED000B53EC102B9DED040B7A
:100D300051EC100B04F03CF853EC1E2B04F038F887
:100D400041EC110B53EC192B8DED081B51EC190BD9
:100D500004F02EF853EC1E2B04F02AF841EC110B92
:100D600053EC1D2B8DED0A1B51EC190B04F020F8F0
:100D700041EC110B53EC182B8DED061B9DED040B74
:100D800051EC100B04F014F89DED061B53EC112BE5
:100D900004F008F853EC1A2B04F00AF89DED0A1B36
:100DA00053EC112B03F05DFF9DED081B53EC112B51
:100DB00003F0F8FF9DED0C1B53EC112B03F051FFDA
:100DC0009DED0E1B53EC112B03F0ECFF41EC100BCF
:100DD00053EC1A2B8DED060B51EC1B0B03F0E8FFC7
:100DE0008846064648EC100B00E065E153EC182BF2
:100DF00051EC100B03F0DCFF41EC110B53EC1E2BFC
:100E00008DED041B029941EC107B51EC100B03F0AB
:100E1000CFFF41EC110B51EC1F0B8DED021B9DED33
:100E2000000B53EC102B03F0C3FF53EC1D2B03F00E
:100E3000BFFF41EC110B53EC1A2B8DED081B51EC4D
:100E40001A0B03F0B5FF53EC1D2B03F0B1FF41EC7F
:100E5000110B53EC1E2B8DED001B0BE0000000006E
:100E60000000E03F00000000000000400000000023
:100E70000000000051EC1A0B03F09AFF41EC1A0B32
:100E800053EC182B51EC1F0B03F092FF53EC1A2B71
:100E900003F088FF53EC192B03F08AFF9DED001B34
:100EA00053EC112B03F0DDFE9DED081B53EC112BD1
:100EB00003F078FF9DED021B53EC112B03F0D1FEE4
:100EC0009DED041B53EC112B03F06CFF41EC100B58
:100ED00053EC1D2B8DED040B48EC106B51EC100BFB
:100EE00003F066FF41EC110B53EC1E2B8DED001B44
:100EF000119941EC109B51EC100B03F059FF41ECA0
:100F0000110B53EC182B8DED021B109941EC10AB1B
:100F100051EC100B03F04CFF41EC1A0B53EC1B2B64
:100F200051EC1B0B03F044FF53EC182B03F040FF74
:100F300041EC180B53EC1E2B51EC1B0B03F038FF4C
:100F400041EC1B0B53EC1D2B51EC1F0B03F030FF3E
:100F500053EC1B2B03F026FF53EC192B03F028FF57
:100F600053EC182B03F07DFE53EC1A2B03F01AFF01
:100F70009DED021B53EC112B03F073FE9DED001B46
:100F800053EC112B03F00EFF9DED060B41EC190BFA
:100F900053EC1C2B51EC100B03F07CFF41EC180BB5
:100FA00053EC1C2B85ED008B9DED040B51EC100BCD
:100FB00003F070FF41EC1A0B53EC1C2B85ED02ABD8
:100FC00051EC190B03F066FF41EC190B85ED049B06
:100FD00094ED100B53EC102B03F0EAFE94ED0E0B86
:100FE00041EC1B0B53EC102B51EC1A0B03F0E0FE01
:100FF00094ED0C0B41EC1C0B53EC102B51EC180B2B
:1010000003F0D6FE53EC1C2B03F02BFE53EC1B2BF2
:1010100003F027FE1FED6D1B53EC112B03F0C8FEF0
:1010200094ED061B94ED000B41EC1B0B53EC112BC4
:1010300051EC100B03F015FE94ED0A1B53EC112B31
:1010400003F00FFE53EC1B2B03F0ACFE94ED301BB2
:1010500053EC112B03F01EFF41EC1B0B53EC192B2F
:1010600051EC190B03F0A4FE41EC190B53EC1A2BB5
:1010700051EC1A0B03F09CFE41EC1A0B53EC182BAD
:1010800051EC180B03F094FE53EC1A2B03F0E9FD1E
:1010900053EC192B03F0E5FD53EC1B2B03F0E1FDA2
:1010A00041EC100B06F044FE8BED000B012013B059
:1010B000BDEC108BBDE8F08F0020F8E72DE9F04F74
:1010C0000D462DED108B04468BB091ED00AB53EC2B
:1010D0001A2B51EC1A0B03F06BFE94ED0CCB53EC76
:1010E0001C2B03F065FE53EC1C2B03F061FE94ED0A
:1010F00030FB41EC180B53EC1A2B51EC1F0B03F097
:1011000057FE8B464BEC100B074653EC1A2B51EC59
:10111000100B03F04DFE94ED00EB53EC1E2B03F08F
:1011200047FE53EC182B03F03DFE41EC190B53EC3A
:101130001E2B51EC1A0B03F03BFE53EC1C2B03F05F
:1011400037FE4BEC107B94ED121B41EC180B53EC6B
:10115000112B51EC100B03F02BFE53EC192B03F069
:1011600024FE53EC182B03F07CFD41EC1B0B1FED10
:10117000C30B51EC1A0B53EC102B03F019FE8946EC
:1011800049EC100B95ED029B064653EC192B51ECE4
:10119000100B03F00DFE53EC1C2B03F009FE94ED35
:1011A0000EDB53EC1D2B03F003FE41EC180B1FED7F
:1011B000D30B51EC1F0B53EC102B03F0F9FD8246BF
:1011C00053EC1A2B069103F0F3FD53EC192B03F0AB
:1011D000EFFD94ED021B53EC112B03F0E9FD53ECF2
:1011E0001B2B03F03EFD53EC182B03F0DBFD41EC11
:1011F000180B53EC1C2B51EC1A0B03F0D9FD049186
:1012000094ED06BB804653EC1B2B03F0D1FD41EC63
:10121000110B4BEC107B8DED001B94ED141B51EC6E
:10122000100B53EC112B03F0C3FD53EC182B03F000
:10123000BCFD9DED001B53EC112B03F012FD41ECA6
:10124000110B49EC106B8DED001B95ED048B51ECEF
:10125000100B53EC182B03F0ABFD53EC1C2B03F0DD
:10126000A7FD94ED10CB53EC1C2B03F0A1FD41EC3A
:10127000110B53EC1A2B8DED021B069941EC10ABB0
:1012800051EC100B03F094FD53EC182B03F090FD80
:1012900094ED041B53EC112B03F08AFD9DED001B14
:1012A00053EC112B03F0DDFC9DED021B53EC112BD5
:1012B00003F078FD41EC100B8DED000B049994EDDB
:1012C0000AAB41EC108B53EC1A2B51EC100B03F0D2
:1012D0006FFD41EC110B4BEC107B8DED021B94ED7F
:1012E000161B51EC100B53EC112B03F061FD9DED1F
:1012F000001B53EC112B03F058FD9DED021B53EC2A
:10130000112B03F0AEFC41EC110B8DED001B9FED9A
:10131000FE0B51EC1E0B53EC102B03F049FD53EC6C
:101320001E2B03F045FD41EC110B8DED021B9FEDD3
:10133000F60B51EC1F0B53EC102B03F039FD05910C
:1013400094ED241B814653EC112B03F031FD9DEDF0
:10135000001B53EC112B03F084FC9DED021B53EC9E
:10136000112B03F01FFD41EC110B53EC1E2B8DEDE7
:10137000001B51EC190B03F01BFD53EC1D2B03F06C
:1013800017FD41EC110B53EC192B8DED081B51ECA3
:101390001F0B03F00DFD039194ED181B064653EC53
:1013A000112B03F005FD9DED001B53EC112B03F0F9
:1013B000FCFC9DED081B53EC112B03F052FC41EC9F
:1013C000110B8DED001B9FEDD20B51EC1E0B53EC5E
:1013D000102B03F0EDFC8B464BEC100B054653EC49
:1013E0001B2B51EC100B03F0E3FC41EC110B8DEDCA
:1013F000081B9FEDC70B51EC1F0B53EC102B03F098
:10140000D7FC049194ED2A1B804653EC112B03F07A
:10141000CFFC9DED001B53EC112B03F022FC9DED46
:10142000081B53EC112B03F0BDFC41EC110B53ECEA
:101430001E2B8DED001B51EC180B03F0B9FC53EC87
:101440001C2B03F0B5FC41EC1E0B53EC182B51EC9C
:101450001F0B03F0ADFC029194ED1E1B074653ECED
:10146000112B03F0A5FC9DED001B53EC112B03F099
:101470009CFC53EC1E2B03F0F4FB4BEC105B41EC9B
:101480001F0B53EC1A2B51EC100B03F091FC41ECA9
:101490001E0B049994ED2C1B41EC108B53EC112B7B
:1014A00051EC100B03F084FC53EC1F2B03F0D9FB21
:1014B00053EC1E2B03F076FC41EC1F0B53EC192B65
:1014C00051EC190B03F074FC53EC1D2B03F070FC72
:1014D00053EC1D2B03F06CFC41EC1E0B039953ECF9
:1014E000192B41EC106B51EC100B03F061FC53EC29
:1014F0001B2B03F05DFC53EC1F2B03F0B2FB53ECF2
:101500001E2B03F04FFC41EC1F0B53EC1B2B51EC3B
:10151000190B03F04DFC53EC1D2B03F049FC41EC7F
:101520001E0B039994ED1A1B41EC106B53EC112B1D
:1015300051EC100B03F03CFC53EC1F2B03F035FC7B
:1015400053EC1E2B03F08DFB41EC1F0B9FED720B38
:1015500051EC190B53EC102B03F02AFC53EC182B15
:1015600003F026FC53EC1D2B03F022FC53EC1C2B48
:1015700003F01EFC41EC1E0B069953EC192B41ECB9
:1015800010AB51EC100B03F013FC53EC182B03F0D1
:101590000FFC94ED081B53EC112B03F009FC53ECEA
:1015A0001F2B03F05EFB53EC1E2B03F0FBFB41EC07
:1015B0001E0B53EC1D2B51EC190B03F0F9FB53ECF4
:1015C0001A2B03F0F5FB41EC190B039994ED1C1B4E
:1015D00041EC106B53EC112B51EC100B03F0E8FBBA
:1015E00053EC1E2B03F0E1FB53EC192B03F039FBFA
:1015F00041EC1D0B9FED44EB51EC1B0B53EC1E2BF0
:1016000003F0D6FB53EC1B2B03F0D2FB41EC190B80
:10161000059994ED261B41EC109B53EC112B51ECDA
:10162000100B03F0C5FB53EC1D2B03F01AFB53EC1E
:10163000192B03F0B7FB41EC1D0B53EC1B2B51ECAA
:10164000180B03F0B5FB53EC1C2B03F0B1FB41EC82
:10165000190B029994ED201B41EC107B53EC112BDC
:1016600051EC100B03F0A4FB53EC1D2B03F09DFB7E
:1016700053EC192B03F0F5FA9FED250B41EC190BF8
:1016800053EC102B51EC1B0B03F092FB53EC1A2B79
:1016900003F08EFB41EC1B0B049994ED2E1B41ECE7
:1016A000108B53EC112B51EC100B03F081FB53EC1E
:1016B000192B03F0D6FA53EC1B2B03F073FB41EC10
:1016C0001B0B53EC182B51EC180B03F071FB53EC74
:1016D0001C2B03F06DFB53EC1C2B03F069FB41EC5E
:1016E000190B029953EC182B41EC107B51EC100BA9
:1016F00003F05EFB53EC1A2B03F05AFB53EC1B2B4D
:1017000003F0AFFA0CE00000000000000000D03F42
:10171000000000000000E03F00000000000000406A
:1017200053EC192B03F03EFB41EC190B53EC1A2B35
:1017300051EC180B03F03CFB53EC1C2B03F038FB73
:1017400041EC180B029994ED221B41EC107B53ECF9
:10175000112B51EC100B03F02BFB53EC192B03F066
:1017600024FB53EC182B03F07CFA41EC180B53ECE0
:101770001E2B51EC1A0B03F01BFB53EC1A2B03F03E
:1017800017FB41EC190B059994ED281B41EC109BBC
:1017900053EC112B51EC100B03F00AFB53EC182BFC
:1017A00003F05FFA53EC192B03F0FCFA41EC100B39
:1017B0000BB07DE430B50446B0F88C0089B000046D
:1017C0000690B4F88E000D4600040790B4F890001F
:1017D00088340004089002A813F042FC029906988D
:1017E0002B46401A06900399079806AA401A0790BC
:1017F00004990898401A08902088616A80B213F012
:101800005BFA09B030BDF0B50D462DED048B87B005
:101810006946FFF7CFFF9FEDFE8B00246F469FEDDB
:10182000FE9A03AE57F8240000EE100A06EB84007F
:10183000B8EEC00A20EE090A80ED000A20EE000A88
:1018400010EE100A03F022FC53EC182B03F009FAF7
:1018500041EC180B641C032CE4DBB0EE480AF0EEFC
:10186000680A06F065FAB0EE408AF0EE608A00245D
:1018700056F8240003F00AFC53EC182B03F00AFB83
:1018800003F048FC00EE100A05EB8400641CD0ED68
:10189000000A032C30EE200A80ED000AE8DB686DB8
:1018A000401C686513F0A0FFE86707B0BDEC048B2F
:1018B000F0BD2DE9F041044613F0ACFC40BB13F041
:1018C00015FC042824D0D54920460E46FFF79BFF7F
:1018D000D34DD5E95C01814205DB3046FEF7DBF8EC
:1018E0000020C5F87401208E4FF00406C00515D500
:1018F00004F1180013F080FC8009B0F5C87F0AD20B
:10190000D5F8B800002850DD401EC5F8B8004AE000
:101910000120BDE8F081C5F8B86044E0D4F8A0101B
:10192000D5F81401081A01D4034600E04342BB4A2B
:101930004FF4A02C583A634505DDD4E929035365DB
:10194000C2E913102FE00312D4F8A470D5F81801DF
:101950005B43381A01D4864601E0C0F1000EE6452B
:1019600005DDD4F8A800D164C2E914701BE00012B0
:1019700000FB0033D4F8A800D5F81C11401A01D49C
:10198000014600E0414261450DDC001200FB0030E1
:10199000B0F5403FB4DBA034C5F8B86094E80B0064
:1019A0004C3282E80B000020B3E70220B1E72DE9BA
:1019B000F04F9B4C2DED028B93B0D4F8A81090ED16
:1019C000000B04EBC10181ED000BD4F8A810491CF9
:1019D000C4F8A81090ED020B04EBC10181ED000BDF
:1019E000D4F8A810491CC4F8A81090ED040B04EB1F
:1019F000C10080ED000BD4F8A800401CC4F8A8007A
:101A0000152802DB0020C4F8A800182284490CA87D
:101A100003F0E1F81822824904A803F0DCF801265B
:101A20000DF1300A0DF1100BA146002406EB46081B
:101A300008EB040109EBC1050AEBC40795ED001B97
:101A400097ED000B53EC112B51EC100B03F04AFBFC
:101A500003D295ED000B87ED000B0BEBC40795ED62
:101A6000001B97ED000B53EC112B51EC100B03F006
:101A700021FB03D295ED000B87ED000B641C032CBA
:101A8000D6DB761C072ED0DB9DED0C1B9DED040BE9
:101A900053EC112B51EC100B03F084F99DED0E1B50
:101AA0009DED060B41EC180B53EC112B51EC100B78
:101AB00003F078F953EC182B03F0FCFA0BD39DEDEF
:101AC0000E1B9DED060B53EC112B51EC100B03F08C
:101AD00069F941EC180B9DED101B9DED080B53ECC3
:101AE000112B51EC100B03F05DF953EC182B03F0A4
:101AF000E1FA0BD39DED101B9DED080B53EC112B60
:101B000051EC100B03F04EF941EC180B13B0B0EE92
:101B1000480AF0EE680ABDEC028BBDE8F08F10B504
:101B200004462DED068B9CB0002155200E91CDE989
:101B30000F1011909FED3B8B0AA813F059FA12A9D0
:101B40000AA813F0B1FF16AA0EA912A813F0CFFF2E
:101B50006A460AA916A813F0CAFF0198B2EE059AC0
:101B600000F5967001900298B0EE490A00F5967063
:101B70000290039800F596700390FEF78BFBBDEE84
:101B8000C00A019910EE100AB0EE490A084401900B
:101B9000FEF780FBBDEEC00A029810EE101AB0EE00
:101BA000490A08440290FEF775FBBDEEC00A03998E
:101BB00010EE100A08440390204601A9FEF77DFCB0
:101BC00094ED300B9FED191B51EC100B53EC112BC6
:101BD00003F088FA5DD21AAA04A92046FEF73FFE58
:101BE00060B39DED080B9FED138B51EC100B53EC84
:101BF000182B03F0D7F841EC100B53EC102B03F02B
:101C0000D7F841EC190B9DED060B53EC182B16E0A1
:101C100000000000000000000000803788880020DD
:101C2000688700200000000000408F400000000096
:101C3000000034400000000000C0724029E051EC78
:101C4000100B03F0AFF841EC100B53EC102B03F02A
:101C5000AFF89DED040B41EC1A0B53EC182B51EC33
:101C6000100B03F09FF841EC100B53EC102B03F01A
:101C70009FF853EC1A2B02F0F4FF53EC192B02F0EF
:101C8000F0FF41EC100B06F053F8B0EE408AF0EE96
:101C9000608A9FEDFD0B51EC180B53EC102B03F0F9
:101CA000F9F81CB041EC100BBDEC068B10BD10B563
:101CB000E821F74802F0B6FFF648F74920F8BC1FC4
:101CC0004A0CC280C181828281834284F048E8212B
:101CD000E83002F0A7FFEF490020C1F8B40010BDC2
:101CE0002DE9F043EB4D04462DED108BC3B0006B96
:101CF000C5F8A0012046FFF7DCFD00287ED1D5F80D
:101D0000941105F1BC08012911D1B4F98C003D9062
:101D1000B4F98E003E90B4F990003F903DA9DC48A4
:101D2000FEF7CBFB04F18C01404600F0A4FB1FED55
:101D300048DB9FEDDABB9FEDDBCB9FEDDCAB9FED8E
:101D4000DDEBD34ED5F80801E83E002802DD401E49
:101D5000C5F8080196ED300B53EC1D2B51EC100B20
:101D600003F0C0F97DD2CA49E822E839684602F09A
:101D700032FFC7483DA9E838FEF79FFBC44940AA97
:101D800020390F46A1F1C800FEF769FD00287BD07D
:101D9000BF483946E838FFF791F9B0EE408AF0EED7
:101DA000608A95ED400B51EC180B53EC102B02F0B0
:101DB000F9FF96ED300B41EC190B53EC1B2B51EC5A
:101DC000100B02F0EFFF41EC100B51EC190B53EC30
:101DD000102B03F05FF841EC100B05F0A9FF96ED16
:101DE00030FBB0EE409AF0EE609A53EC1B2B51ECB6
:101DF0001F0B02F0D7FF53EC1F2B00E0E9E002F0CD
:101E0000D7FF41EC1F0B53EC1C2B51EC180B02F0CD
:101E1000CFFF53EC1F2B03F03DF841EC100B05F006
:101E200087FFD5F8E80003F031F995ED381B53EC46
:101E3000112B02F0BDFF53EC192B03F03BF903D338
:101E4000D5F80801002826DD9148E8226946E838DF
:101E500002F0C1FED5F8E80003F018F995ED381B43
:101E600001E010E010E053EC112B02F0A1FF53EC65
:101E7000192B03F01FF95CD24FF4FA7001F03CFE0D
:101E80000A20C5F8080154E08148E8226946E8388C
:101E900002F0A1FE4DE0D5F89801012849D1D5F80E
:101EA000B400401CC5F8B400002014F03DFA96EDD3
:101EB000320B53EC1A2B51EC100B02F079FF03F0AC
:101EC000ADF83A9096ED340B53EC1A2B51EC100B05
:101ED00002F06EFF03F0A2F83B9096ED360B53EC48
:101EE0001A2B51EC100B02F063FF03F097F83C90B3
:101EF00003213AA814F0A6F996ED300B53EC1E2BF3
:101F000051EC100B03F0EEF811D29FED6C0A604912
:101F1000E839F0EE400A0846FEF7FFF95C4839461A
:101F2000E838FFF7CBF8B0EE408AF0EE608A85ED36
:101F3000408B208E564FC0050CD5B4F87400C005F8
:101F400008D507F1E800FFF7EAFDB0EE408AF0EEB1
:101F5000608A01E09FED4C8B97ED300B1FEDCD1BA0
:101F600051EC100B53EC112B03F0A4F831D348497A
:101F700040AAC83189464648FEF771FC00287CD04B
:101F8000D4F8AC0003F00BF841EC100B53EC102B21
:101F90009FED4B0B51EC100B02F07CFF41EC1F0B43
:101FA0004846FFF704FDB0EE409AF0EE609A53EC1D
:101FB0001F2B51EC190B03F095F80BD29FED420B40
:101FC00051EC180B53EC102B03F074F802D2FFF70E
:101FD0006EFEDBE153EC1F2B51EC190B03F06AF89A
:101FE00051D251EC180B9FED3A9B53EC192B03F097
:101FF00061F8F5D297ED300B9FED371B51EC100BCC
:1020000053EC112B03F06EF8EAD296ED300B53EC43
:102010001D2B51EC100B03F04DF87CD149461C48A8
:10202000FFF74CF8B0EE408AF0EE608A85ED408B09
:1020300097ED309B53EC1B2B51EC190B02F0B2FEC9
:1020400053EC192B02F0B4FE41EC190B53EC1C2B92
:1020500051EC180B02F0ACFE53EC192B02F01AFFF6
:1020600041EC100B05F064FEB0EE408AF0EE608AA1
:10207000D5F8E80003F00AF800E088E195ED381B98
:1020800053EC112B2CE078E1000000000000084028
:1020900098850020688700200080FFFF0000000076
:1020A0000000F03F000000000000004000000000C1
:1020B0000000F0400000000000409F406666E63EE1
:1020C0009A9999999999A941000000000000F83F58
:1020D00000000000000010400000000000003E4032
:1020E00002F066FE53EC182B02F0E4FFFFF46FAF32
:1020F0009DED400B49464046FDF7C4FF02283FF4E2
:1021000066AF00287ED1D5F898010128FAD10020C9
:1021100014F00AF900E02FE097ED320B53EC1A2B84
:1021200051EC100B02F044FE02F078FF3A9097ED6C
:10213000340B53EC1A2B51EC100B02F039FE02F069
:102140006DFF3B9097ED360B53EC1A2B51EC100BB7
:1021500002F02EFE02F062FF3C9003213AA814F038
:1021600071F8012014F0A2F819200090019002905B
:10217000684614F091F8F6E0D5F8B40002F00FFFCD
:1021800097ED301B53EC112B02F084FE9FEDE71B03
:1021900053EC112B02F0A6FFA8D34946E548FEF701
:1021A0008DFF97ED30DBB0EE408AF0EE608A53ECA5
:1021B0001B2B51EC1D0B02F0F5FD53EC1D2B02F017
:1021C000F7FD41EC1B0B53EC1C2B51EC180B02F0F0
:1021D000EFFD53EC1B2B02F05DFE41EC100B05F004
:1021E000A7FDB0EE40BAF0EE60BAD5F8E80002F014
:1021F0004DFF95ED381B53EC112B02F0D9FD53EC3C
:102200001B2B00E087E002F055FFC5D39DED400B8E
:1022100049464046FDF736FF00287CD196ED361B37
:1022200097ED360B53EC112B51EC100B02F0BAFD6D
:1022300041EC100B53EC102B02F0BAFD96ED341B61
:1022400097ED340B41EC1B0B53EC112B51EC100BA5
:1022500002F0A8FD41EC100B53EC102B02F0A8FD8E
:1022600096ED321B97ED320B41EC1C0B53EC112B0E
:1022700051EC100B02F096FD41EC100B53EC102BBF
:1022800002F096FD53EC1C2B02F0EBFC53EC1B2BE5
:1022900002F0E7FC41EC100B05F04AFDB0EE40BA4D
:1022A000F0EE60BAD4F8AC0002F079FE53EC1B2BD0
:1022B00002F07EFD9FEDA01B53EC112B02F078FD88
:1022C00041EC1B0B53EC192B02F00CFF1AD39FEDC2
:1022D0009C0B51EC1B0B53EC102B02F003FFBFF4D3
:1022E00076AED5F8B40002F05AFE97ED301B53ECF1
:1022F000112B02F0CFFD9FED941B53EC112B02F03C
:10230000D9FEECD2D5F8980101287FF460AE002008
:1023100014F00AF800E039E085ED408B97ED320BC0
:1023200053EC1A2B51EC100B02F042FD02F076FE3A
:102330003A9097ED340B53EC1A2B51EC100B02F042
:1023400037FD02F06BFE3B9097ED360B53EC1A2BEA
:1023500051EC100B02F02CFD02F060FE3C900321CA
:102360003AA813F06FFFF7EE000A9FED790A714962
:10237000A1F1E800FDF7D1FF29E697ED300B53EC12
:102380001E2B51EC100B02F0ADFEF5D3002043B034
:10239000BDEC108BBDE8F08370B56E4C0546D4F8EB
:1023A0000C0110B9284600F091F8D5F8B01044F6A9
:1023B000206081420ADAD4F8102111448142C4F825
:1023C00010114FF0000005DBC4F810012846BDE8ED
:1023D000704085E470BD04224FF4C871AFF247002D
:1023E00013F0EABDAFF24F0014F070B8514810B5C9
:1023F000E821E83802F016FCFFF759FC4FF4D471DD
:10240000544802F00FFC534CB7EE000A04F59070EC
:1024100084ED3A0AFDF78BFA0A20C4F87001B2EE97
:10242000000A84ED570A1E209FED4B0AC4F87C0178
:1024300084ED620A9FED490A84ED610A9FED480A26
:10244000002084ED630A10BD10B5FFF7CFFF002810
:1024500005D1AFF27D00BDE8104013F089BE10BD7C
:1024600010B5AFF2CB0014F031F8AFF29500BDE833
:10247000104014F097B830B50022C2EBC20331F916
:10248000124030F91350AC420ADD02EB42040D88D1
:1024900020F8245000EB84044D8865808D88A58049
:1024A00000EB430331F91240B3F906309C4209DADC
:1024B00002EB420300EB83030C88DC804C881C8118
:1024C0008C885C81521C032AD7DB30BD70B5214D4E
:1024D000D0F8AC200446EAB1D3170020192102F04D
:1024E00028FB45F8AC0F54F8AC2F0020D31705217A
:1024F00002F01FFB686022680020D317962102F0CB
:1025000018FB02F04CFDC5E90D01AC3D0120C5F8FA
:102510000C0170BD6FF00040C5F8AC009FED110BD1
:10252000C5F8B00085ED380BF0E700000AD7A370BE
:102530003D0AE73F98850020000000000000103EA3
:102540000000000000000440333333333333C33F13
:102550000000000068870020CDCCCC3E3333333FF1
:102560009A99193F0000C0FFFFFFDF4110B5FF49F6
:10257000C4074FF040434FF0804205D08B66CB66D6
:10258000C1E91C328A67CA67840709D5C1F80031DE
:10259000C1F80431C1E94232C1F81021C1F8142157
:1025A000400709D5C1F89831C1F89C31C1E96832BA
:1025B000C1F8A821C1F8AC2110BD2DE9F14F0020D0
:1025C00082B0824681460298806F00287ED0002229
:1025D0000020401C0428FCDB029800EBC203D3E976
:1025E0000010A1FB0167D3E9065400FB017701FB52
:1025F0000077AB46AD1BCDE900670326A5FB06C8F7
:10260000A64664EB070404FB0684002705FB074588
:10261000DDE900671CEB06047D41A4FB016705FBB7
:10262000017504FB0055D3E90C47341B65EB070526
:10263000CDE900455D46A5FB05670324A6FB0458CC
:102640000EFB0B770BFB0E7707FB04844FF0000C9F
:1026500006FB0C44D3E91263761B63EB04034C18AE
:10266000A4FB017C40EB000505FB01C504FB005504
:10267000A7FB014C05FB01C507FB0055A4FB017C32
:1026800005FB01C504FB0054F6196341DDE9004573
:10269000AD0045EA9475A400A4FB017C05FB01C1D3
:1026A00004FB0014F01B73EB040103D5002340422C
:1026B00063EB0101BAEB000479EB010301DA824616
:1026C0008946521C032A83DB504600E016E0494647
:1026D00002F04FFC00EE900AA54890ED0E1A80EE35
:1026E000810A10EE100A02F078FCA04AD2F80C22FF
:1026F00003B09200BDE8F04F02F05BBA002003B0D7
:102700000146BDE8F08F2DE9F14F0020009A014607
:10271000926FE2B300240022521C042AFCDB009AD0
:1027200002EBC405AA46D5E90029A2FB023CD5E983
:1027300006769E46FB1A0325A3FB057809FB02CC0F
:1027400002FB09CB66EB0B0606FB05854FF0000C80
:1027500003FB0C5617EB0E03A3FB027C46EB0B06A8
:1027600006FB02C203FB0923DAE90C25BA1AAB41C6
:1027700003D50025524265EB0303851A71EB03056F
:1027800001DA10461946641C032CC4DB00E015E096
:1027900002F0EFFB00EE900A754890ED0E1A80EE05
:1027A000810A10EE100A02F018FC704AD2F80C22CE
:1027B000BDE8F84F02EB420202F0FBB900200146EF
:1027C000BDE8F88F2DE9FE43684D80460024D5F81A
:1027D00010626F4605EBC4013246D1E9020102F0F6
:1027E000D9F905EB8401B1F884100904401847F8C1
:1027F000240004F10104032CECDB5C489821083030
:1028000002F010FA0120FFF7B1FE95F8E8010199F6
:10281000042807D1D5F81802B0F5201F02DD0520E5
:1028200085F8E801524C0098636AC11A01D40E463B
:1028300000E01E1A0198A26A801A01D4074601E03E
:10284000019FD71BBE4206DD002901D4084606E0E1
:102850000098181A03E0002801D50198101A029A6E
:10286000E16A521A01D4134601E0029BCB1A83425B
:1028700005DB002A01D4104601E00298081AD8F8B6
:10288000241013F0D6F8D5F81812814206DD032182
:10289000684613F04FFD022013F0A6FD0098606219
:1028A0000198A0620298E062BDE8FE83304AC2E966
:1028B000020170472E4AC2E9060170472C4AC2E95C
:1028C00004017047294AD2F8E0310360D2E974026A
:1028D000C1E900027047254AD2F8E0310360D2E92D
:1028E0007602C1E9000270472DE9FE4781460020CB
:1028F000EA468A6F22B901EB800339F91020DA67C2
:1029000001EB800239F91030D46F1D1B4AF82050BA
:10291000136E9D4200DD1566D36E9D4200DAD566CA
:102920000123002422464FEAE578A3FB056704FB58
:10293000057403FB0844334602EB420601EBC6066E
:1029400006EBC00CDCE90076FF186641CCE90076A6
:10295000521C042AE9DB401C0328CADB886F401C98
:1029600088670120C1F89000BDE8FE87108900202B
:10297000708B002030B5002302EB830550F8234014
:102980005B1CEC66032BF7DBC2F88810916F79B102
:10299000002102EB810450F82130E56F5B1B00D56C
:1029A0005B42256E9D4200DA2366491C0329F0DB59
:1029B000906F401C90670120C2F8900030BD10B5A8
:1029C00000210B4600EB8102491CD46ED4671366CC
:1029D0000329F7DBD0F8881040F8783FC0E90513E9
:1029E00010BDD0E92210081A70470146D1E918023B
:1029F000824200DB1046896E814200DB0846704748
:102A00002DE9F0478046501E012686408946C2F1D6
:102A10002007404602F0CDF804460D4640464946A0
:102A20003A4602F0B7F83A4602F0C3F8B04203DD86
:102A3000641C45F1000505E07142884202DA641E1B
:102A400045F1FF3520462946BDE8F087F7490020CB
:102A5000086248628862C862086448648864C8641E
:102A6000086348638863C863086548658865C86506
:102A7000704730B5EE4AD2F8483223B1D2E99054CB
:102A80002D1A8C4101DAC2E990015B1CC2F8483270
:102A900030BD30B5E64AD2F8583223B1D2E9945469
:102AA0002D1A8C4101DAC2E994015B1CC2F858323C
:102AB00030BD30B5DE4AD2F828322BB1D2E9884594
:102AC000041B71EB050401DAC2E988015B1CC2F842
:102AD000283230BD30B5D64AD2F838322BB1D2E9DF
:102AE0008C45041B71EB050401DAC2E98C015B1C07
:102AF000C2F8383230BD2DE9F0470246CC480125F6
:102B000008308046C36E016E046FC91A436E1B1BEA
:102B10008B4200DB1946836ED8F87400181A88427D
:102B200000DB0146C14F6037F86B884204DA0024AD
:102B300000F010FA204687E7108E0124BC4EC00535
:102B40004FF000010ED5D6F880303068834209DBA3
:102B5000B2F87420D20506D5D6F8B021824201DB46
:102B6000052400E00C4674B3600719D5AF48C83897
:102B70008146FFF722FD000D40EA01300915C6E944
:102B80007601D7E904321B1A8A4102DA0025FFF7E1
:102B9000A1FF9821484602F045F80420FFF7E6FC23
:102BA000E0070ED04046FFF708FDC6E97C01D7E9F3
:102BB00006340246181A8C4103DA00251046FFF746
:102BC00078FF284640E7FFE702203DE71EB50446B0
:102BD00090F83000C0F38110032804D19449201DDF
:102BE0000831FFF781FE94F87400C0F381100328C8
:102BF00005D18E4904F14800C839FFF775FED4F8B5
:102C0000B8008B4AC0F38113A0326946032B0FD062
:102C1000C0F3411003281AD1002004EB8003D3F83D
:102C2000A0309B1341F82030401C0328F5DB09E05D
:102C3000002004EB4003B3F98C3041F82030401CF5
:102C40000328F6DB6846D4F8C010FFF793FE1EBDDC
:102C50002DE9F04705460020296BCA056AD501F029
:102C60005001402900D1012095F8741001F0500165
:102C7000402900D1012095F8B8106D4C01F05001A9
:102C8000402900D030B100F065F90020C4F8E0011F
:102C900084F8E801654ED4F80812E86A603681428B
:102CA00028D0C4F808020A28306B0CDA40002060F3
:102CB000716B00EE100A491CC4F80C12B8EEC00A81
:102CC00005F073F805E02060706BC4F80C0296ED17
:102CD0000E0A84ED850AD4F80C02C0F11000C4F885
:102CE00010024FF48040C4F8180296F834101920EE
:102CF0008840F0632846FFF769FF94F8E811DFF891
:102D0000309105274FF0020809F1A009072911D2D7
:102D1000DFE801F0041127305E7E8500D4F8E00181
:102D2000411CC4F8E0110A2804DB00F013F901206B
:102D300084F8E80186E0D4F89800012810D12846EC
:102D4000FFF7D9FE10B1012803D004E084F8E87140
:102D500001E084F8E8814846FFF731FEFFF776FE90
:102D600070E0032084F8E8012846FFF72BFD00F00F
:102D7000F1F867E02846FFF7BEFEE8B3012861D10D
:102D8000B5F8B8004FF00403C00515D54846FFF765
:102D90002CFE0146C017C4E97410D6E902C2BCEB90
:102DA0000101824102DA84F8E87108E04846FFF741
:102DB00018FE316A884202D384F8E83124E0F4E94D
:102DC0007601FFF766FED4E90601FFF752FE39E00F
:102DD000B5F8B800C0050BD54846FFF706FE01461A
:102DE000C017C4E97410D6E90232591A824108DBCF
:102DF0002846FFF780FE00E003E010B1012803D071
:102E000020E084F8E8711DE02846FFF7DBFCD6E7F8
:102E1000062084F8E801012013F0E6FA0DE02846C8
:102E2000FFF769FE012805D038B10BE0108B0020B8
:102E30001089002084F8E88104E000F08BF848460F
:102E4000FFF7BDFD0020FFE510B500214010002870
:102E500002D001F10101F9DC4FF0010001F10101A3
:102E600000FA01F0434C00EE100AC4E90C01B8EE80
:102E7000C00A04F09AFF84ED0E0A94F83410192069
:102E80008840E06310BD10B54FF418713A4801F066
:102E9000C9FE4021374801F0C5FE0720FFF766FB59
:102EA000344840F2DC510022C0E906121421C0E986
:102EB00002124FF41671C0E9041230492E4C01621F
:102EC0000120C4F8E4011920FFF7BEFF0020C4F878
:102ED000080210BD10B54FF41871274801F0A2FE8A
:102EE0000720FFF743FB244801210022C0F8E4112A
:102EF00080F8E8110321012013F06AFA0722642107
:102F0000AFF2B320BDE8104013F056B810B5012061
:102F100013F06AFAAFF2C720BDE8104013F0D6BA3A
:102F200010B5FFF7B0FF002805D1AFF25700BDE89C
:102F3000104013F01DB910BD10B5FFF7E7FFAFF259
:102F40006B00BDE8104013F02DBB0B49D1E97C01AB
:102F500070477047084810B59821083001F062FEAC
:102F60009821074801F05EFEBDE810400520FFF7FC
:102F7000FDBA0000708B0020108900200008AF2FE0
:102F8000488A0020F0B516462DED028B85B01F460D
:102F90000C4605463C22FE49A1F10C0001F01BFE47
:102FA000FB4950224C31A1F1100001F014FEF84908
:102FB00096E80D000C3901F13C0C8CE80D005CCC5E
:102FC00001F1980080E85C009FEDF28AD1F82401BD
:102FD000401CC1F82401062802DD0620C1F82401A6
:102FE000C0F106060C46A0351AE004EB06116A464D
:102FF0003846483112F07BFD06EB460004EB8001B9
:103000006A46284611F0EAFDF0EEC00AB0EEC81A92
:10301000F4EEC10AF1EE10FA01D2B0EE408A761C4D
:10302000062EE2DB05B0B0EE480ABDEC028BF0BD27
:1030300070B514462DED048B0E46B0EE408A002587
:103040009FEDD59A416BF0EE498A002904DBD0F858
:10305000BC00032800D10125CD492422B431081F2A
:1030600001F0B9FDCA480C38002380ED388A00EB26
:1030700083015B1C91ED2F0A0A2B70EE288AF6DB88
:10308000B2EE040AC822C8EE800AC0ED390A9FEDEC
:10309000C31A322E1DDB9FEDC20AC0F81C21B6F503
:1030A0007A7FC8EE001A00EE104AB8EEC00A61EE50
:1030B000801A81EE810A2FDB9FEDBA0AC8EE001A52
:1030C00000EE104AB8EEC00A61EE801A81EE810A65
:1030D00022E041F2883194FBF1F14942D0F81C31F1
:1030E00001EB8101C918C0F81C1102D50021C0F8FC
:1030F0001C119FEDAD0AC8EE001A00EE104AB8EEA2
:10310000C00A61EE801A81EE810A29B9D0F828112F
:10311000012901D1B0EE490AD0F8201109B1B0EE71
:10312000480AA2498C4201D1B0EE480AB5EEC00A65
:10313000F1EE10FA01D0C0ED3A0A90ED3A1A9C4B2C
:1031400071EE600AF0EEE00A10EE901A994227DD67
:10315000D0ED2E0AF5EEC00AF1EE10FA20D1002DC6
:103160001ED0C0F81C21204601F019FF41EC190BBC
:1031700018EE100A01F08AFF9FED8E1B53EC112B05
:1031800001F088FE53EC192B01F012FE9FED8B1B12
:1031900053EC112B01F07EFE01F0BCFF00EE100A93
:1031A000BDEC048B70BD2DE9F04F04462DED048B72
:1031B000A9B09FED799A4FF0000A754ECDF810A096
:1031C0000C3ECDF814A0CDF818A0D6F8201102209E
:1031D00003297DD000209FED7B8A20AD06EB800186
:1031E00091ED2A0A05EB8001401CB8EEC00A0428C4
:1031F00020EE080A81ED000AF0DB0FA811F0F8FEBE
:1032000024A811F079FF624B24AA9C330FA9204611
:103210002793FFF7B7FEF0EE408A04F1180011F093
:10322000EBFF81096148D6F83021824200DB02467B
:10323000B0EE680A2046FFF7FBFED6ED3B0AB34628
:103240000BA820EE200A86ED2E0A11F0D1FE13A95C
:103250000BA812F018FE4E480FAAF0300BA9064634
:1032600012F045FC31460BA812F01EFC00210DF1B6
:103270003C080DF14C090DF1100E002213461046CA
:1032800001EB410C0CEB000759F8276008EB8007B5
:10329000401C7F680328C6FB0723F3DB900F40EA3E
:1032A00083004EF82100491C0329E6DBDBF82001EE
:1032B0005E4600286AD05046CDF818A0404200EE85
:1032C000100AB8EEC00A20EE080A03F045FB00E041
:1032D000A2E08DED000A8DED019A8DED029A06981F
:1032E000404200EE100AB8EEC00A20EE080A04F0D0
:1032F00057FC8DED030A9DED060ADFED330AD6F883
:103300003001B8EEC00A41F2883190FBF1F080EE56
:10331000201A00EE100AF8EEC01A81EE210AB0EE73
:10332000001AC0EE011ABDEEE10A10EE101A4900B3
:1033300000EE101A0691B8EEC00A60EE200A00EE08
:10334000100AB8EEC00A20EE800ABDEEC00A8DED6C
:10335000060AB8EEC00A20EE080A03F0FDFA8DED69
:10336000070A8DED089A8DED099A9DED060AB8EED3
:10337000C00A20EE080A04F013FC8DED0A0A1CAA0C
:10338000694620A812F04BFC6A461FE04BE00000A3
:10339000BC8B0020002474490000000000409C45C4
:1033A00000004843000048420000C84340420F006C
:1033B0000E2DB23D0000000000007940000000002A
:1033C0000088B34000008030E102374707A91CA8FD
:1033D00012F025FC6F46DFED958AD4F8BC0000287A
:1033E00013DD002007EB800191ED000A05EB800161
:1033F00081ED000A20EE280A06EB8001401C04281B
:10340000BDEEC00A81ED2A0AECDBD4F8BC00F6EE72
:10341000009A03280CD108E0C6F8200129B0BDECC1
:10342000048BBDE8F08F069848E700F03DFEE0B35E
:1034300096ED2A0AB8EEC00A20EE080A8DED1C0AA5
:1034400096ED2B0AB8EEC00A20EE080A8DED1D0A93
:1034500096ED2C0AB8EEC00A20EE080A8DED1E0A81
:1034600096ED2D0AB8EEC00A20EE080A8DED1F0A6F
:10347000D6F820010028D1D096ED2E0A20EE290A98
:1034800003F06AFA20EE280ABDEEC00A86ED2A0A89
:10349000C6F8ACA0C6F8B0A096ED2E0A20EE290A18
:1034A00004F07EFB20EE280A00E004E0BDEEC00A36
:1034B00086ED2D0A2BE096ED2E0A20EE290A03F068
:1034C0004BFA8DED070A8DED089A8DED099A96ED70
:1034D0002E0A20EE290A04F063FB8DED0A0A6A46E3
:1034E00007A920A812F09BFB684612F04BFC0020B5
:1034F00007EB800191ED000A06EB8001401C20EEF5
:10350000280A0428BDEEC00A81ED2A0AF0DBD4F8AF
:10351000C010279812F0D0FED6F820010028AAD0BB
:10352000401E79E770B590F8B810414ACC064FF0CC
:1035300000034FF0030101D4C2E94813B0F8204161
:10354000E40509D4048EE40503D5B0F87440E4051D
:1035500002D4C2E948131AE0D2F8341139B1D0E9E3
:103560003013C91A4FF47A73B1FBF3F105E0D0F8C8
:10357000B01044F62064A14202DBC2F830110AE028
:10358000D2F82C512944C2F82C11A14201DA0020B2
:1035900070BDC2E94B31FFF706FEF8E710B54FF4F6
:1035A0009C71234801F03EFB214C4FF080400021EC
:1035B000C4F8FC0044F8A80F1D48A83012F07CFEA7
:1035C0004FF47A70B7EE000A606784ED110A10BDFF
:1035D000174880ED3B0A002070471549C1F82801C3
:1035E000002070471249C1F83401002070470422BE
:1035F0004FF41671AFF2D30012F0DEBCAFF2DB0075
:1036000012F064BF10B5FFF7C9FF09490020C1F8E7
:103610002801C1F83401AFF22900BDE8104012F0D2
:10362000A7BDAFF2350012F0BDBF00000000804E14
:10363000B08B00201FB501461022684601F0CBFA7E
:10364000F7489DE80E0080E80E00F6499DF80C0052
:1036500081F8B001002004B010BD1FB5F0490EC9BB
:103660008DE80E00EF49102291F8B0118DF80C1082
:10367000694601F0B0FA0020EDE72DE9F04F91B076
:1036800000251821684601F0CDFA0024182106A86B
:1036900001F0C8FAE348A046C14690F8C0110129DC
:1036A0007ED1D0F8B8B1D0F8B4A10022C2EBC200EC
:1036B00000EB4001DB4800EB810E9EF850000F90BC
:1036C000002864D000215FE0DDE900076D1C5EF892
:1036D00021300E93181847EBE376CDE900060EEB88
:1036E0008100EDB243690D93DDE9027C4FEAE37698
:1036F000DB1946EB0C06CDE90236836ADDE9047C72
:10370000DE170C93DB1946EB0C06CDE90436C06BD3
:103710000E9BDDE9067C83FB0063360C46EA03461C
:10372000F6194CEB2343CDE906630D9BDDE9087CDC
:1037300083FB00634FEA164646EA0346F6194CEB54
:103740002343CDE908630C9BDDE90A7C83FB00631E
:103750004FEA164646EA0346F6194CEB2343CDE9F9
:103760000A6380FB00634FEA164646EA034616EBFF
:10377000080849EB23490444584501DA834602E02E
:10378000504500DD8246491C0F9888429CDC521C43
:10379000052A8BDBA348AAEB0B01D0F8BC0100E0A3
:1037A00056E0814254DBA5FB0823E0170026109069
:1037B00006FB083005FB0900CDE90C2084FB042042
:1037C000110C41EA00410014CDE90E0106A800EBFE
:1037D000C601D1E90003A0FB05B203FB05220021CD
:1037E00000FB012C684600EBC601D1E90001A0FBFB
:1037F000043701FB0471109A00FB0210190C41EA16
:1038000000490CAA4FEA204A92E889000F9983EAFE
:10381000070880EA010252EA080212D0421A63EB5A
:103820000703BBEB09006CEB0A0C4FEA0C4141EAC1
:103830001041000401F07DF97A4901EB8601C1F8DD
:10384000A401761C032EC1DB7648012180F8B0115B
:1038500011B00020BDE8F08FF8B5724D0E46044659
:10386000D5E96D01091A052291FBF2F1301A90FB9E
:10387000F1F0C0B28DF80000042801D92020F8BD75
:10388000C0EBC00000EB400005EB800191F8500058
:10389000052816D0421C81F850209DF80010C1EB7D
:1038A000C10101EB410105EB810202EB8001CE6316
:1038B000236842F8203060684861A0688862002070
:1038C000F8BD01F14003181F1022194601F083F9D9
:1038D0009DF800001022C0EBC00000EB400005EB9B
:1038E0008000011D01F077F99DF800001022C0EB67
:1038F000C00000EB400005EB800000F1180114301F
:1039000001F069F99DF800001022C0EBC00000EB47
:10391000400005EB800000F12C01283001F05BF93C
:103920000420BAE730B585B0044603A9684611F013
:103930001FFC04A811F050FD02282BD0D4F8E4009D
:103940000399401A374991F8B02112B308B3D1F85E
:10395000A421009C80FB0232150445EA1342224454
:103960000092D1F8A821019C80FB0232150445EA9F
:10397000134222440192D1F8AC11029A80FB01104B
:10398000030443EA1140104402900321684612F0F8
:10399000D1FC0CE0606B032809D111F0FFFB30B1C2
:1039A00068460399FFF758FF08B9FFF766FE05B0B0
:1039B000002030BD10B54FF4E2711A4801F032F921
:1039C00018481949C0F8B4114FF4AA01C0F8B81149
:1039D0004FF4A021C0F8BC11012180F8C0110020D3
:1039E00010BD1049C1F8B801002070470D49C1F859
:1039F000B401002070470B49C1F8BC01002070479A
:103A000058B10849D1F8A4210260D1F8A821426038
:103A1000D1F8AC118160002070470520704700008C
:103A20008C8E0020E88C00200000D8FF2420F5E7D1
:103A300020B12D4981F8C0010020EFE72420EDE7F7
:103A4000294B93F8B1010028E8D0D3E96D10401A52
:103A5000052190FBF1F00020C0EBC00101EB41011A
:103A600003EB810191F8502022B1002100E0491CB4
:103A70008A42FCDC401C0528EEDB0020CEE7082251
:103A800096211A4812F098BA184812F01FBD10B5C6
:103A9000FFF790FF4FF49A7310221549154812F062
:103AA00011FB20B9AFF2290012F062FB08B101202E
:103AB00010BD0D49012081F8B101002010BD10B5E5
:103AC000094C94F8B101002808D0084812F0FEFC17
:103AD000AFF2550012F066FD08B1012010BD0020C4
:103AE00084F8B10110BD0000E88C002025390200E7
:103AF0005B36020035360200002803DDFE49012254
:103B0000C1E920020020704710B5B821FA4801F041
:103B100089F89FEDFA0AF84880ED030A9FEDF80A4C
:103B200080ED020A9FEDF70A4FF0804180ED000A18
:103B3000B3EE0E0A80ED010A41664FF4FA619FED83
:103B4000F20AC16780ED270A002010BD70B5EA4C6B
:103B5000002594ED001AB4EEC01AF1EE10FA17D356
:103B600094ED011AB4EEC01AF1EE10FA10DC2069DF
:103B7000012817D194ED030AB4EEE00AF1EE10FA31
:103B800006D394ED020AB4EEE00AF1EE10FA09DD74
:103B9000606F20B9D848A16D183012F08DFB01205C
:103BA000C4E91D05D4E91E01884204DB606F0128C9
:103BB00000D1E565656770BD10B504462DED028B3B
:103BC000B0EE408A11F01EFACB49002220B918EE5F
:103BD000100ACE4B984202DD0A614A6102E0086990
:103BE000002808D1486920444861B0F5FA7F02DD19
:103BF0000120C1E90402BDEC028B10BDF0B58DB00F
:103C00000D4614460646694612F03DF909AA3146AA
:103C1000284611F06CFF2946304611F045FF00217F
:103C2000EC460DF1240E00231A46184601EB41071D
:103C30003D180EEB80065CF825507668401CC5FBED
:103C400006320328F4DB980F40EA820044F8210092
:103C5000491C0329E7DB0DB0F0BDA7490020C1F8DE
:103C60008C00704710B590ED000AD0ED010AB8EE57
:103C7000C00AB8EEE01AF8EEE00A20EE000A01EE03
:103C8000200AD0ED020AB8EEE01AF8EEE00A01EEE2
:103C9000200A04F08AF8DFED9E0A20EE200A10BD0B
:103CA00000229549012330B1012810D0C1F8983085
:103CB00041F88C2F31E081ED280A81ED290A9FED32
:103CC000950A81ED2A0AE1E924328A607047D1ED34
:103CD000280A91ED271A70EE600AF0EEE00AF4EE81
:103CE000C10AF1EE10FA16D2D1F89400401CC1F8C6
:103CF0009400D1ED290A312830EE800A81ED290A9D
:103D0000E4DD0220DFED840AC1F8900080EE201A85
:103D100081ED2A1A704741F8902F4A6070472DE9CB
:103D2000F04798462DED088B8AB017468A46044620
:103D30009FED788A0025704E039504950595D6F879
:103D4000880000287DD011F035FA10B103A811F0D9
:103D5000FDF9D6F880004FF00109002817DDC6F8FC
:103D6000849011F027FA48B103A811F045FA8009B0
:103D7000B0F5C87F02D2D6F8800004E0D6F8800003
:103D8000001BC6F88000002801DCC6F8845011F042
:103D90002BFD002855D000209FED5D9A57F820108C
:103DA00000EE101A58F82010401CB8EEC00A032884
:103DB00060EE090A00EE101AB8EEC00A20EE800A82
:103DC00000EE098AEADB3846FFF74CFFF0EE408A46
:103DD0004FF07E5788EE280AF7EE00AA10EE100A80
:103DE000B84201DDB0EE6A0A10EE100ADFF82C814D
:103DF000BFEE00BA404501D9B0EE4B0A02F092FB8B
:103E0000D6F88C00B0EE40AA98B196ED000AB4EE58
:103E1000E80AF1EE10FA0CDD96ED010AB4EEE80ABC
:103E2000F1EE10FA05D2B0EE4A0AD6F89000FFF78C
:103E300037FF684611F0B8FA2F490C22AC316846BA
:103E400000E0E2E000F000FF18B9D6F89800012881
:103E50006BD129489DE80E00AC3080E80E00009838
:103E600018B9019808B90298F0B36846FFF7FAFE4E
:103E7000B0EE408AB5EEC08AF1EE10FA55D0F2EEFF
:103E8000049A38EE690A20EE000A03F08EFF86EDF0
:103E9000010A38EE290A20EE000A03F086FF86EDBB
:103EA000000A9DED020AB8EEC00A60EE090AB0EE03
:103EB000480A80EE808A18EE100AB84201DDB0EEA2
:103EC0006A8A18EE100A404501D9B0EE4B8AB0EE6E
:103ED000480A02F027FBD6ED270A30EE600A86ED8D
:103EE000020AB0EE480A00E024E002F01BFBD6ED27
:103EF000270A30EE200A14E0AC8E00200000B44205
:103F00000000B4C2000070427B142E3E00401C46EC
:103F1000000080370000000000004842000080BF21
:103F200003E086ED030AC6F88C50DFF88481F16D5A
:103F300021B32FE01FED0D0A86ED000AB3EE0E0A45
:103F400086ED010AD6F89800012808D01FED140A62
:103F500086ED020A1FED170A86ED030AE5E796EDE6
:103F60002A0A96ED271A70EE410A30EE010AC6EDD4
:103F7000020A86ED030AC6F89850D6E70027C6F86D
:103F80005C9006EB07104146183011F077F87F1C63
:103F9000042FF6DB464906AA0C310F465046FFF7C0
:103FA0002DFE3946504611F07FFD03A811F024F98B
:103FB00000EE100ADFED3F0A2046B8EE400A20EE80
:103FC000200AFFF7F9FDF0EE4A0AB0EE680AFFF7A3
:103FD000BDFDD6E91E01884201DA2044B067706F4A
:103FE00090B9306E20443066B0F57A7F0CDD3049F0
:103FF00030223039A1F11000356600F0ECFD2C487C
:104000004146103811F03AF8706F0AB0BDEC088BD9
:10401000BDE8F08770B588B0044604A811F06CF8CC
:10402000D4E93001451A684610F0E2FF064604ABB9
:1040300004F1A00269462846FFF771FE12F04EF91E
:1040400008B0304670BD04224FF49671AFF23B00C9
:1040500011F0B2BFAFF2430012F038BA10B5FFF75B
:1040600053FD00280DD1124800215838C0F88C109B
:104070000121C0F88810AFF23100BDE8104012F005
:1040800077B810BD10B5AFF2730012F01FFAAFF29F
:104090007B00BDE8104012F019BA054901205839DB
:1040A000C1F88C000020704701485838406F7047B5
:1040B000048F00200000803CF0B51D462DED028BE2
:1040C00099B090ED000AD0ED010A1746B8EEC00A8B
:1040D000B8EEE01AF8EEE00A0E4620EE000A0446BA
:1040E00001EE200AD0ED020AB8EEE01AF8EEE00A7E
:1040F00001EE200A03F059FEF0EEC00A10EE900A1D
:10410000B0F18D4F7EDDD6ED000AB8EEE01ADFED9E
:10411000FE0A21EE201A8DED041A96ED011AB8EE72
:10412000C11A21EE201A8DED051A96ED021AB8EE8D
:10413000C11A21EE201A8DED061A96ED031AB8EE7B
:10414000C11A61EE200ACDED070A9FEDF08A10AA90
:104150008DED0C8AD4ED000A0CA904A8F8EEE00A53
:1041600080EE801A8DED0D1AD4ED010AF8EEE00A0A
:1041700080EE801A8DED0E1AD4ED020AF8EEE00AF8
:1041800080EE801A8DED0F1A11F049FD14A904A8D4
:1041900011F096FC6A4614A910A811F040FD9DED9F
:1041A000021ADDED010ADA4921EE010A00EEA00A49
:1041B00010EE100A884202DA9FEDD60A11E010EEE6
:1041C000100AD549884202DA9FEDD40A09E010EEC0
:1041D000100AD349884202DAB5EE000A01E09FEDE9
:1041E000D10A01EE907AB8EEE12ADFEDCF2A8DED0B
:1041F000088AC2EE221A21EE800A21EE001A8DED05
:10420000091A00E038E020EEC00A6A4604A98DEDE4
:104210000A0A8DED0B8A08A811F001FD6A4604A96F
:10422000104611F020FC684611F062FDDDED000A39
:104230009FEDBE0A60EE800AFDEEE00AC5ED000AC1
:10424000DDED010A60EE800AFDEEE00AC5ED010A2F
:10425000DDED020A60EE800AFDEEE00AC5ED020A1D
:10426000DDED030A20EE800ABDEEC00A85ED030AEB
:1042700019B0BDEC028BF0BD96E80F0085E80F0089
:10428000F6E72DE9F0410C462DED068B054690ED45
:10429000000AD0ED010AB8EEC00AB8EEE01AF8EE56
:1042A000E00A20EE000A01EE200AD0ED020AB8EE84
:1042B000E01AF8EEE00A01EE200A03F076FD10EEB7
:1042C000100A4FF07E5800264FF0804740453FDDF2
:1042D000D5ED020AB7EE009AF8EEE00AC0EE808A49
:1042E00039EE680A9FED89AAB5EEC00AF1EE10FA20
:1042F00001DCB0EE4A0AF6EE009A20EE290A03F03D
:1043000054FDB0EE408A38EE890AB5EEC00AF1EEEF
:1043100010FA01DCB0EE4A0A20EE290A03F045FD4E
:10432000F0EE408A95ED000AB8EEC00A60EE000A91
:1043300095ED010AB8EEC01AB8EEC00A41EE000AC7
:10434000B0EE600A03F031FD10EE100A404503DCC8
:10435000C4E90076A66025E0DFED740A28EEA01A15
:10436000BDEEC11A84ED001A95ED011AF8EEC11ADE
:1043700081EE801A21EE081A61EE200AFDEEE00AB5
:10438000C4ED010AD5ED000AF8EEE00A80EE801ACD
:1043900021EE080ADFED660A20EE200ABDEEC00A13
:1043A00084ED020AE660BDEC068BBDE8F08170B5D5
:1043B00090ED000AD0ED010A0546B8EEC00AB8EE4D
:1043C000E01AF8EEE00A0C4620EE000A01EE200AA0
:1043D000D0ED020AB8EEE01AF8EEE00A01EE200A8B
:1043E000D0ED030AB8EEE01AF8EEE00A01EE200A7A
:1043F000B5EEC00AF1EE10FA07D84FF08040206009
:1044000000206060A060C86070BD03F0CEFCB7EE15
:10441000001AC1EE000A9FED450A20EE800AD5ED94
:10442000000AF8EEE00A60EE800AFDEEE00AC4ED54
:10443000000AD5ED010AF8EEE00A60EE800AFDEE12
:10444000E00AC4ED010AD5ED020AF8EEE00A60EEDA
:10445000800AFDEEE00AC4ED020AD5ED030AF8EE8B
:10446000E00A20EE800ABDEEC00A84ED030A70BDAA
:1044700070B5044690F8300088B040067ED5A0693B
:10448000002801DB014600E041424FF48032002663
:10449000284D91420BDAE169002900DA4942914244
:1044A00005DA216A002900DA4942914267DB0028D7
:1044B00000DA40424FF4C80188420BDCE069002872
:1044C00000DA4042884205DC206A002800DA4042D7
:1044D000884201DD032000E00220A863696BA06A26
:1044E000814242D0686394ED0A0A9FED131AF8EEF8
:1044F000C00A80EE810ADFED110A20EE200A10EEDC
:10450000100A00F0C3FD1BE0000080300000000036
:1045100017B75139A69BC43B0AD7233C8FC2753DC0
:10452000CDCC4C3ECDCCCC3E0014CD470000804ECF
:10453000000080CE648F0020002474490000004EEB
:104540009FEDFA1B53EC112B00F032FC9FEDF91B91
:1045500053EC112B00F02CFC9FEDF81B53EC112BAE
:1045600000F098FC00F05AFD28630496296BA069BE
:1045700011F05FFA0590296BE06901E022E023E089
:1045800011F057FA0690296B206A11F052FA079041
:104590006A4604A9EB4811F0AAFA0098E94A80019A
:1045A0000090019869468001019002988001029074
:1045B000039880010390104611F041FAE149084642
:1045C000FFF7F5FE08B070BDAE63FBE770B50446BB
:1045D0002DED048B8EB0D0F82001410676D5D94D53
:1045E000D4F81011D84B2A68891AD4F82C215A43D0
:1045F0008A4201DA032100E00221A963800504F563
:10460000887602D5CF493046B5E0002107A810F0E2
:10461000AFFDCC490C223C3107A800F015FB20B9B6
:10462000D4F82801A96D88427ED020886B4680B2DC
:1046300007AA616A10F040FB9DED000ADDED010A5A
:10464000B8EEC00AB8EEE01AF8EEE00A20EE000A72
:1046500001EE200ADDED020AB8EEE01AF8EEE00AFB
:1046600001EE200A03F0A1FBB0EE408A9FEDB70AED
:1046700068EE000A9FEDB61A80EE810ADFEDB50AFA
:1046800020EE200AD4ED4A0AF8EEE00A60EE800A35
:104690001FED571A80EE810AF6EE000A20EE209AEE
:1046A000B0EE490A02F058F9F0EE408AB0EE490A3D
:1046B00003F076FA18EE100A4FF08041884206DACD
:1046C0000020C5E912102865686532E055E05FED0D
:1046D000690A68EEA00AFDEEE00AC5ED120A5FED78
:1046E0006C0A20EE200ADDED000AF8EEE00A60EE2A
:1046F000200A80EE881AFDEEC10AC5ED130ADDED31
:10470000010AF8EEE00A60EE200A80EE881AFDEE5B
:10471000C10AC5ED140ADDED020AF8EEE00A20EE4A
:10472000200AC0EE080A00E00DE0BDEEE00A85EDCB
:10473000150A07AB93E8070005F13C0383E807007F
:10474000D4F82801A8657F4903AA4831304611F002
:10475000CEF97C480AAA5C3003A9044611F0C7F9D7
:104760002146304611F0A0F903AA0AA9754811F0B4
:10477000BEF9744903A8FFF71AFE0EB0BDEC048B16
:1047800070BD1FB5044669466E4811F08DF96D4A3B
:1047900069462032204611F0AAF96A491DCC103131
:1047A00081E81D001FBD2DE9F0470446654E90F8D5
:1047B000740006F15C0A06F12008012500F05001A2
:1047C000103692B004F5887904F15C07402906D0D0
:1047D00094F8200100F0500040280DD01DE0314633
:1047E0003846FFF74EFDB4F82001C0050CD5514600
:1047F000484611F059F907E05146484611F054F97E
:10480000B4F87400C00508D569464E4811F04CF95B
:1048100042466946304611F06AF9B4F82001C005F5
:10482000204602D5FFF7D2FE01E0FFF721FE324617
:104830004449404611F05BF994F8740040066FD586
:10484000208EB4F820110843C0056DD50FAA394653
:10485000304611F0EFFAD4E9172080FB0001C2FBCB
:104860000201626E374FC2FB02014FF08042801A94
:1048700071F1020014DB04A810F0FAFCDDE9042059
:1048800080FB0001C2FB0201069AC2FB02014FF04D
:104890008042801A71F1020002DB0420B8630BE051
:1048A000B86B042808D041F28832022806D00328C9
:1048B00004D0012852D009E0002507E0E16E91FB09
:1048C000F2F5012D00DA0125032800D0AD002248C1
:1048D00000244543109807948002294611F0A9F856
:1048E00008900F9829464042800211F0A2F8CDE9C5
:1048F00009040BAA314607A811F0F9F832460BA9B2
:10490000104611F09CF831460846FFF750FD694605
:104910000C4811F0C9F842466946304611F0E7F8F4
:1049200012B00020BDE8F08720E00000112D4454B3
:10493000FB21094000000000000070400000000062
:1049400000806640648F002071981C00DB0F494096
:104950000000344300008037A69BC400E06E90FB4B
:10496000F2F0012800DA01204500AFE7334619468E
:104970003846E26EFFF7A0FBC9E770B50446008E2B
:10498000C105D4F8200107D4B4F87410C90503D4C4
:10499000C10501D4002070BDC0F30120032807D059
:1049A0002046FFF700FF2348A16B11F07DFDF1E7E2
:1049B00004F588711F482EC980E82E00F3E71E48D1
:1049C00011F084BD1B4810B56C21103800F02AF995
:1049D00018484FF080411038016101600162C163E5
:1049E000C165002010BD184810B5082213A1006849
:1049F00000F02AF908B1322010BD1322BDE81040A2
:104A0000C8210D4811F0D8BA10B5FFF7DBFF002818
:104A100005D1AFF22D00BDE8104011F0A9BB10BDCB
:104A200010B5054811F052FDAFF24500BDE8104049
:104A300011F0B8BD748F00207B490200654D504CC9
:104A400020352E310000000020410020DFED1D0A3E
:104A5000B5EEC00A60EE200ABDEEE01A11EE100AB3
:104A6000F1EE10FA38BF401E00EE100AB8EEC00A90
:104A700030EEC00ADFED140A20EE200AB4EEE00AA0
:104A8000F1EE10FAA8BF30EE600AFCEEC00A0F4942
:104A9000F7EE001A10EE900AC0F3080000EE900A3C
:104AA00001EB8000F8EE600A90ED011A70EE600AEA
:104AB00090ED000A71EEE01A21EE800A00EE810A04
:104AC0007047000083F9223E00000044544F040068
:104AD0002DE9F05F0546002092469B468846064633
:104AE000814640241BE0284641464746224600F0C6
:104AF00043FB53465A46C01A914110D311461846FB
:104B0000224600F047F82D1A67EB01084F4622466F
:104B10000120002100F03EF817EB00094E41201E55
:104B2000A4F10104DFDC484631462A464346BDE88D
:104B3000F09F2DE9F0410024061B254671F1000687
:104B400005DA01240027D0EB070067EB0101161EF0
:104B500073F1000605DA0027D2EB0702012567EBA7
:104B60000303FFF7B5FF86460E4617469C46AC4248
:104B700004D00025D0EB050E65EB010624B1002022
:104B8000D2EB000760EB030C704631463A466346B1
:104B9000BDE8F081202A04DB203A00FA02F100206F
:104BA00070479140C2F1200320FA03F3194390406B
:104BB0007047202A06DBCB17203A41FA02F043EA7D
:104BC000E07306E041FA02F3D040C2F120029140C6
:104BD00008431946704710B5431A934209D2831807
:104BE000881803E010F8011D03F8011D521EF9D2C8
:104BF00010BD40EA01039B0703D009E008C9121F5A
:104C000008C0042AFAD203E011F8013B00F8013B86
:104C1000521EF9D210BDD2B201E000F8012B491E9C
:104C2000FBD270470022F6E710B513460A46044649
:104C30001946FFF7F0FF204610BD421C10F8011B7B
:104C40000029FBD1801A704730B504460020034686
:104C500000E05B1C934203D2E05CCD5C401BF8D0CB
:104C600030BD2DE9FE4F804681EA0300C00F0C469F
:104C7000009021F0004123F00045B8EB0200A9416B
:104C800005D24046214690461C460B46024623F07C
:104C90000040104347D0270DC7F30A00C3F30A5161
:104CA0000290401A019040286BDAC3F3130040F4DD
:104CB000801B0098924620B10023D2EB030A63EBDD
:104CC0000B0B01985946C0F140025046FFF762FFB6
:104CD00006460D4650465946019AFFF76AFF10EB0B
:104CE00008006141002487EA115284EAE7731A43FD
:104CF00040D0009A62B3019A012A4FEA075215DCAC
:104D0000001B61EB02014FF0004202EA0752CDE9BD
:104D10000042001C41F5801132462B4600F082FA19
:104D200003B0BDE8F08F40462146F9E7001B61EB78
:104D30000201001C41F5801300185B412018A2F508
:104D4000001747EB030140EAD570B6196D4111E039
:104D50006D084FEA360645EAC0754FEA0752001B58
:104D600061EB0201001C41F5801149084FEA300057
:104D70000019514132462B4603B0BDE8F04F00F018
:104D800042BA0098012240000023D0EB020263EBFC
:104D9000E073009821464FEAE074B8EB000061EB45
:104DA0000401E9E783F000435BE781F0004158E745
