:020000040007F3
:10500000485E0020495407005154070053540700DC
:10501000555407005754070059540700000000007A
:105020000000000000000000000000005B540700CA
:105030005D540700000000005F5407006154070042
:10504000635407006354070063540700716E070040
:105050006354070063540700635407006354070058
:105060006354070063540700635407006354070048
:105070006354070063540700635407006354070038
:1050800063540700216C0700635407006354070052
:10509000816E070063540700856E070063540700A4
:1050A0006354070063540700635407006354070008
:1050B0006354070063540700000000000000000074
:1050C00063540700635407006354070063540700E8
:1050D0006354070063540700635407000000000096
:1050E00000000000000000000000000000000000C0
:1050F00000000000000000000000000000000000B0
:10510000000000000000000000000000000000009F
:10511000000000000000000000000000000000008F
:10540000DFF80CD000F004FA004800471D990700AF
:10541000485E0020056885F308884068FF2464B270
:10542000EFF30585002D01D1A64600472546064627
:1054300021273FBAF0B40024002500260027F0B44D
:10544000F92040B200470000064880470648004760
:10545000FEE7FEE7FEE7FEE7FEE7FEE7FEE7FEE724
:10546000FEE7FEE7A96E0700015407002DE9F05F93
:105470000546002092469B468846064681464024C3
:105480001BE0284641464746224600F095F8534621
:105490005A46C01A914110D311461846224600F0D0
:1054A00016F82D1A67EB01084F462246012000210D
:1054B00000F00DF817EB00094E41201EA4F1010485
:1054C000DFDC484631462A464346BDE8F09F202AA5
:1054D00004DB203A00FA02F1002070479140C2F14B
:1054E000200320FA03F319439040704740EA010378
:1054F0009B0703D009E008C9121F08C0042AFAD28A
:1055000003E011F8013B00F8013B521EF9D270474D
:10551000D2B201E000F8012B491EFBD270470022F5
:10552000F6E710B513460A4604461946FFF7F0FFA2
:10553000204610BD30B504460020034600E05B1C49
:10554000934203D2E05CCD5C401BF8D030BD0346F3
:1055500011F8012B00F8012B002AF9D118467047E9
:10556000C1F30A5210B5C1F3130140F2FF3341F405
:1055700080119A4201DA002010BD40F233439A4272
:10558000A2F2334203DC524200F016F810BD904004
:1055900010BD00F0004230F000400AD0C10D01F50E
:1055A0006071C0F3160042EA0151C208400711437E
:1055B0007047002001467047202A04DB203A21FA78
:1055C00002F00021704721FA02F3D040C2F120021C
:1055D00091400843194670472DE9FE4F804681EA05
:1055E0000300C00F0C46009021F0004123F000455D
:1055F000B8EB0200A94105D24046214690461C4620
:105600000B46024623F00040104347D0270DC7F356
:105610000A00C3F30A510290401A019040286BDA45
:10562000C3F3130040F4801B0098924620B100237E
:10563000D2EB030A63EB0B0B01985946C0F1400211
:105640005046FFF744FF06460D4650465946019A1C
:1056500000F0F0F810EB08006141002487EA1152D5
:1056600084EAE7731A4340D0009A62B3019A012A90
:105670004FEA075215DC001B61EB02014FF00042BC
:1056800002EA0752CDE90042001C41F58011324682
:105690002B4600F0F0F803B0BDE8F08F40462146FD
:1056A000F9E7001B61EB0201001C41F580130018B3
:1056B0005B412018A2F5001747EB030140EAD570C3
:1056C000B6196D4111E06D084FEA360645EAC0751E
:1056D0004FEA0752001B61EB0201001C41F58011EB
:1056E00049084FEA30000019514132462B4603B0B9
:1056F000BDE8F04F00F0B0B8009801224000002350
:10570000D0EB020263EBE073009821464FEAE074AD
:10571000B8EB000061EB0401E9E783F000435BE7CD
:1057200081F0004158E700002DE9F041054621F0E5
:1057300000400C46284309D0C4F30A5040F23341DC
:10574000884205DD28462146BDE8F0812846FBE772
:1057500040F2FE31884210DC0CDB4FEA043040EAB4
:10576000155050EA053105D0104804F000410143BE
:105770000020E9E700200146E6E7A0F23340464278
:10578000C6F1400228462146FFF7A1FE074688469B
:10579000284621463246FFF70FFF43463A4600F0BF
:1057A0005BF83246BDE8F041FFF791BE0000F03FE4
:1057B00030B5041E71F1000404DB4FF00044404298
:1057C00064EB0101141E73F1000405DB1C464FF06D
:1057D0000043524263EB04038B4208BF824230BD58
:1057E00030B5041E71F1000404DB4FF00044404268
:1057F00064EB0101141E73F1000405DB1C464FF03D
:105800000043524263EB0403994208BF904230BD0B
:10581000064C074D06E0E06840F0010394E80700FD
:1058200098471034AC42F6D3FFF7EEFD24D20700C0
:1058300044D20700202A06DBCB17203A41FA02F0B7
:1058400043EAE07306E041FA02F3D040C2F12002DD
:10585000914008431946704710B5141E73F10004B7
:1058600008DA401C41F1000192185B411A4301D152
:1058700020F0010010BD2DE9F04D92469B4611B17C
:10588000B1FA81F202E0B0FA80F220329046FFF7DE
:105890001EFE04460F4640EA0A0041EA0B01534649
:1058A0005A46084313D0114653EA010019D0C8F1F3
:1058B00040025046FFF780FE05460E4650465946C8
:1058C0004246FFF704FE084305D0012004E02046CD
:1058D0003946BDE8F08D0020054346EAE0762C43CA
:1058E00037430A986305E40AA0EB08000022FD0A8A
:1058F00044EA47540A3002D500200146E9E7010591
:1059000010196941DDE9084500196941BDE8F04D0C
:10591000A2E72DE9F0438BB08046129D15F9046B88
:10592000009614461F4689462B4602A81146424659
:1059300000F0B7FC02A80146129A00F0A2FC404613
:10594000414602AA129B00F08CFC2046214602AA86
:10595000129B00F086FC2B46384639464A46009694
:1059600000F09FFC02A83946129A00F08AFC02A8B7
:10597000014642462B46009600F093FC02A80146E1
:1059800022462B46009600F08CFC204621464246DB
:105990002B46009600F085FC484649462246129B5D
:1059A00000F05FFC2046414602AA2B46009600F01C
:1059B00078FC384639462246129B00F052FC3846A5
:1059C00039464A462B46009600F06BFC204602A959
:1059D000324600F030FE0BB0BDE8F083F0B589B080
:1059E0001C4607460E461546684611461A4600F004
:1059F00048FC384639466A46234600F032FC684681
:105A000069462A46234600F02CFC304631466A4659
:105A1000234600F026FC09B0F0BD1AB1013A8B5CB8
:105A20008354FAE770472DE9F0478846B3F902102E
:105A30001F460825CB1D202493FBF5F51F31954209
:105A400091FBF4F44FFA84F928BF154606464946FF
:105A500000F072FA2A4630464146FFF7DEFFB7F9FA
:105A60000230ED009D4220D9ED1A06EB84010022A0
:105A70008E420AD251F8040D20FA05F313430B604D
:105A8000C5F1200300FA03F2F2E724373846314625
:105A90004A4600F05DFA012807D0304631463A46C2
:105AA0004B46BDE8F04700F01BBFBDE8F0872DE98D
:105AB000F04793F9006092B004468946104631469B
:105AC0001546984600F06EFA002840F0978002A82C
:105AD0004946424600F0D5FB43460AA8214602AAA1
:105AE00000F0BFFB02A80146424600F0CAFB434655
:105AF000484649462A4600F0B4FB08F10407284608
:105B00002946424600F0BDFB204621462A463B4638
:105B1000009600F0F5FA284629462A463B460096AC
:105B200000F0EEFA284621462A463B46009600F051
:105B3000B8FB204621462A46434600F092FB284601
:105B4000214622463B46009600F0DAFA20463B46C4
:105B5000009621462A4600F0D3FA2368DB07204648
:105B600013D5334621463A4600F0BAF9314682460B
:105B7000204600F053FD06F18043013B54F823001A
:105B800040EACA7044F8230002E0314600F046FDC6
:105B900028462146424600F074FB284629460AAAB8
:105BA0003B46009600F07DFB284629460AAA3B4664
:105BB000009600F076FB0AA801462A463B4600966E
:105BC00000F06FFB204621460AAA434600F049FB3D
:105BD00002A802463B462146009600F062FB2046A2
:105BE0002946324600F027FD28464946324600F055
:105BF00022FD484602A9324600F01DFD12B0BDE864
:105C0000F08700000048704774D107002DE9F04F7D
:105C1000EFB01E46789C059023780493B4F90230C7
:105C200092461F33202293FBF2F3DBB206939DF9D9
:105C3000187094F9012007F1FF3926AB002543F8CD
:105C400029506EAB03EB89034EA88B46314643F8CF
:105C5000805C43F8605CFFF7E0FE94F9012056A8F1
:105C6000B118FFF7DAFE9DF910604EA8314600F03A
:105C700099F98046002840F02F8156A8314600F05F
:105C800091F90546002840F0258104F1240840469A
:105C90004EA93A4600F05CF9012840F01D814046CB
:105CA00056A93A4600F054F90128089040F01481B2
:105CB0003B461EA856A9424600F03BFA0DF1380CAF
:105CC00060465946524623464CF82950CDF80CC040
:105CD000FFF7A9FEDDF80CC00097604661461EAADA
:105CE0004346CDF824C00DF5BC7900F0A8FA434630
:105CF000009716A84EA91EAA00F0A1FA48463246FF
:105D0000059900F098FCB300039309EB030B039A89
:105D1000059B58469918324600F08DFC04F1440367
:105D20001946324636A8079300F085FC04EB86013D
:105D300032463EA8443104F1040A00F07CFC494696
:105D400000961EA836AA534600F0ABFA4A465B46B8
:105D500036A83EA90094FFF7DCFD1EA80146334695
:105D6000524600F0E6F91EAA484659462346FFF778
:105D700035FEDDF824C0079B0B936046059B0C9312
:105D80003946CDF814C00A95CDF8349000F024FCC3
:105D90003946054616A800F01FFCA842B8BF2846A1
:105DA00085B2DDF814C06F1E3FB26046394600F080
:105DB000C7FD394610F1000916A818BF4FF00109B8
:105DC00000F0BEFD002814BF0223002343EA0909A6
:105DD0000DF1280B32465BF8297026A8394600F0F1
:105DE0002AFC039B3246F9182EA800F024FC314609
:105DF0001EA800F0A1F8023D089B1E93AEB237B278
:105E0000002F44DB23461EAAD4F8A45026A82EA9AE
:105E1000A84739460EA800F093FD3946051C16A880
:105E200018BF012500F08CFD002814BF02230023B9
:105E30001D430AAB53F8257037B39DF9105036A8AF
:105E400039462A4600F0F7FB039B3EA8F9182A467C
:105E500000F0F1FB36A83EA91EAA2346FFF7BEFDBF
:105E600046A826A936AA5346009500F01AFA36A885
:105E70003EA926AA2EAB0094FFF74BFD1EA80146B3
:105E800046AA234600F0EDF9013EB6B2B7E79DF908
:105E900010501EA8014652462B4600F04AF92346F0
:105EA00026A82EA91EAAFFF799FD9DF91840404685
:105EB00026A9224600F04CF8012805D026A8014664
:105EC0004246234600F00CFD26A84EA92A4600F0C3
:105ED00054F802E0404600E028466FB0BDE8F08F7D
:105EE000C3F10803DB0070B501330446002003A5AD
:105EF0005B1920C940CAAD1920C4184720C940CA3F
:105F0000754120C420C940CA754120C420C940CA77
:105F1000754120C420C940CA754120C420C940CA67
:105F2000754120C420C940CA754120C420C940CA57
:105F3000754120C4404170BD10B5002253B28B4260
:105F400005DA1BB2002440F823400132F6E710BD09
:105F500010B5013AD2B253B2002B09DB1BB250F894
:105F6000234051F823309C4204D8F2D2FF2002E0B3
:105F7000002000E0012040B210BD013A30B5D2B29D
:105F8000002453B2002B09DB1BB2013A51F8235015
:105F900050F823306B401C43D2B2F2E7B4FA84F0DD
:105FA000400930BD10B500231A465CB28C4204DAB9
:105FB00050F8244001332243F7E7B2FA82F0400957
:105FC00010BD00002DE9F043A3B09846019112AB3B
:105FD0004146074610469146009300F0FDFAC0EB9B
:105FE000881086B2454C33B21C40002CBEBF04F171
:105FF000FF3464F01F040134202593FBF5F5EDB266
:106000006DB2A4B202A8294624B2FFF795FF28B2C8
:1060100002AB002C03EB800010DD00221346434549
:1060200010D259F8235005FA04F10A4340F823200E
:10603000C4F1200225FA02F20133F0E74946424654
:1060400000F0F9FA0FFA88F502AB4FEA450901248E
:1060500003EB8505330444D40022114653B24B456B
:1060600022DA0DF1880E0EEB840E0DF1880C18B2B9
:106070005EF888EC0CEB83035EF820E053F8803C7C
:10608000C3EB0E035B1A734502D08CBF01210021C4
:10609000C4F1010E0DF1880C0CEB8E0E01325EF88E
:1060A00088EC4EF82030D9E7621A544202A84146E3
:1060B000544100F0B3FA22AA08F1FF3302EB830344
:1060C00002EB8802284652F8801C53F8802C013ECF
:1060D00042EAC172414643F8802CB6B200F09EFA03
:1060E000B8E722AB03EB8404384654F8881C4246D8
:1060F00000F0A1FA23B0BDE8F08300BF1F000080CC
:1061000070B59DF910401D4623460646FFF7E8FE90
:1061100030B9284631462246FFF71AFF012807D03A
:10612000304631462A462346BDE8704000F0D8BBD1
:1061300070BDF0B50646A1B00F4608461946154693
:106140001C46FFF72FFF20B130462146FFF7F4FE33
:1061500073E068463946224600F06DFA08A82946E1
:10616000224600F068FA10A82146FFF7E5FE012359
:1061700018A821461093FFF7DFFE684608A92246BB
:10618000FFF7E6FE002853D0009BDA0704D46846E8
:10619000214600F043FA26E0089BDB0704D408A858
:1061A000214600F03BFA3DE000281EDD08AA234608
:1061B0006946684600F094FB6846214600F02EFAD6
:1061C00010A818A92246FFF7C3FE002805DA10A878
:1061D00001462A462346FFF783FE10A8014618AA67
:1061E000234600F07DFB10A81DE008A86A46234660
:1061F000014600F075FB08A8214600F00FFA18A828
:1062000010A92246FFF7A4FE002805DA18A80146C7
:106210002A462346FFF764FE18A8014610AA234623
:1062200000F05EFB18A82946224600F06BFCA4E7AC
:10623000304610A9224600F0FEF921B0F0BD70B53D
:1062400090B006469DF950401D466846234600F032
:106250003AF8304669462A462346FFF7B3FE10B0A7
:1062600070BD30B51C4691B0054693F900306846C4
:1062700000F029F8D4F8AC3028466946984711B0A8
:1062800030BD30B5144691B0054692F900206846FD
:1062900000F0DEF9D4F8AC3028466946984711B0D2
:1062A00030BD70B59DF910401D462346064600F0EE
:1062B00017FB38B1304631462A462346BDE87040C8
:1062C000FFF70EBE70BD2DE9F04F08B4F8CA04B454
:1062D00051F8042BA3FB028940F8048B4FF0000A0D
:1062E000E4FB629A4FF0000BE5FB62AB4FF0000C51
:1062F000E6FB62BC4FF0000EE7FB62CE51F8042BC8
:106300004FF00008E3FB628940F8048BE4FB629ADB
:10631000E5FB62ABE6FB62BCE7FB62CE51F8042B07
:106320004FF00008E3FB628940F8048BE4FB629ABB
:10633000E5FB62ABE6FB62BCE7FB62CE51F8042BE7
:106340004FF00008E3FB628940F8048BE4FB629A9B
:10635000E5FB62ABE6FB62BCE7FB62CE51F8042BC7
:106360004FF00008E3FB628940F8048BE4FB629A7B
:10637000E5FB62ABE6FB62BCE7FB62CE40F8049B48
:1063800040F804AB40F804BB40F804CB40F804EB01
:106390000CBC052B00F01E810C68A0F11400A1F1CB
:1063A0001401A2F1140252F804EB4FF0000550F86A
:1063B000046BE4FB6E5652F804EB50F8047BE4FBEC
:1063C0006E6752F804EB50F8048BE4FB6E7852F8D9
:1063D00004EB50F8049BE4FB6E8952F804EB50F890
:1063E00004ABE4FB6E9AA0F1140052F8044B51F890
:1063F00004EB4FF0000CE4FB6EC540F804CB51F801
:1064000004EBE4FB6E5640F8045B51F804EBE4FB4C
:106410006E6740F8046B51F804EBE4FB6E7840F8CB
:10642000047B51F804EBE4FB6E8940F8048B51F8CF
:1064300004EBE4FB6E9AA0E80006062B00F0CA808D
:106440000C68A0F11800A1F11801A2F1180252F88D
:1064500004EB4FF0000550F8046BE4FB6E5652F865
:1064600004EB50F8047BE4FB6E6752F804EB50F841
:10647000048BE4FB6E7852F804EB50F8049BE4FBC9
:106480006E8952F804EB50F804ABE4FB6E9A52F8B4
:1064900004EB50F804BBE4FB6EABA0F1180052F81B
:1064A000044B51F804EB4FF0000CE4FB6EC540F8D0
:1064B00004CB51F804EBE4FB6E5640F8045B51F852
:1064C00004EBE4FB6E6740F8046B51F804EBE4FB6B
:1064D0006E7840F8047B51F804EBE4FB6E8940F8D9
:1064E000048B51F804EBE4FB6E9A40F8049B51F8DE
:1064F00004EBE4FB6EABA0E8000C072B6AD008B4F9
:106500000C68A0F11C00A1F11C01A2F11C0252F8C0
:1065100004EB4FF0000550F8046BE4FB6E5652F8A4
:1065200004EB50F8047BE4FB6E6752F804EB50F880
:10653000048BE4FB6E7852F804EB50F8049BE4FB08
:106540006E8952F804EB50F804ABE4FB6E9A52F8F3
:1065500004EB50F804BBE4FB6EAB52F804EB50F8CC
:1065600004CBE4FB6EBCA0F11C0052F8044B51F8C4
:1065700004EB4FF00003E4FB6E3540F8043B51F8A8
:1065800004EBE4FB6E5640F8045B51F804EBE4FBCB
:106590006E6740F8046B51F804EBE4FB6E7840F84A
:1065A000047B51F804EBE4FB6E8940F8048B51F84E
:1065B00004EBE4FB6E9A40F8049B51F804EBE4FB17
:1065C0006EAB40F804AB51F804EBE4FB6EBCA0E802
:1065D000001808BCBDE8F08F0139C9B24BB2002BDE
:1065E0000BDA013111F0FF0315D059B201F18043EC
:1065F000013B50F82320002304E050F82330002B07
:10660000EAD0EEE712B152080133FBE7481E03EB74
:10661000401080B200E0184600B2704700EB8101E4
:106620000023884206D251F8042D43EA52030B603E
:10663000D307F6E7704730B5002463B2934206DA19
:106640001BB2013451F8235040F82350F5E730BD18
:106650002DE9F04FB1E8005E06B4AAFB09124FF035
:106660000003EBFB69234FF00004ECFB69344FF0AF
:106670000005EEFB69454FF00006EBFB6A63ECFB9F
:106680006A344918524176415B41A9FB09784FF0C1
:10669000000949F1000918EB0108A0E88001AAFBF4
:1066A0000A78574158EB0608A0E88001EEFB6A45DE
:1066B0004FF0000A4AF1000A4FF00001ECFB6B14A6
:1066C000EEFB6B454FF00002EEFB6C255FEA5909CB
:1066D0004941644152416D4149F10009EBFB6B3A7C
:1066E0001AEB010AA0E80804ACFB0C6A66415AEBFD
:1066F000020AA0E84004AEFB0E6A6E415AEB090A9A
:10670000A0E8400406BC052A00F0E680A0F11400D1
:10671000A1F11401B1E8E043A5FB0E344FF00005F0
:10672000E6FB6E454FF00006E7FB6E564FF00007A4
:10673000E8FB6E674FF00008E9FB6E784FF0000948
:10674000DB1864416D4176417F4158EB080859F1EF
:10675000000950F804CB13EB0C0350F804CB54EBB6
:106760000C0450F804CB55EB0C0550F804CB56EB59
:106770000C0650F804CB57EB0C0758F1000859F100
:106780000009A0F11400EEFB0E89A0E8F803062A28
:1067900000F0A280A0F11800A1F11801B1E8E047D3
:1067A000A5FB0E344FF00005E6FB6E454FF00006EA
:1067B000E7FB6E564FF00007E8FB6E674FF00008EE
:1067C000E9FB6E784FF00009EAFB6E894FF0000A92
:1067D000DB1864416D4176417F4158EB080859EB65
:1067E00009095AF1000A50F804CB13EB0C0350F8D6
:1067F00004CB54EB0C0450F804CB55EB0C0550F8CB
:1068000004CB56EB0C0650F804CB57EB0C0750F8B2
:1068100004CB58EB0C0859F100095AF1000AA0F119
:106820001800EEFB0E9AA0E8F807072A54D0A0F152
:106830001C00A1F11C01B1E8E04FA5FB0E344FF0A4
:106840000005E6FB6E454FF00006E7FB6E564FF085
:106850000007E8FB6E674FF00008E9FB6E784FF029
:106860000009EAFB6E894FF0000AEBFB6E9A4FF0CD
:10687000000BDB1864416D4176417F4158EB0808FD
:1068800059EB09095AEB0A0A5BF1000B50F804CBEB
:1068900013EB0C0350F804CB54EB0C0450F804CB6E
:1068A00055EB0C0550F804CB56EB0C0650F804CB16
:1068B00057EB0C0750F804CB58EB0C0850F804CBFE
:1068C00059EB0C095AF1000A5BF1000BA0F11C0016
:1068D000EEFB0EABA0E8F80FBDE8F08F0000000063
:1068E000C3F10803DB0070B50133002403A500BF2A
:1068F0005B1920C940CAAD1B20C0184720C940CA37
:10690000B54120C020C940CAB54120C020C940CAF5
:10691000B54120C020C940CAB54120C020C940CAE5
:10692000B54120C020C940CAB54120C020C940CAD5
:10693000B54120C06441B4FA84F0400970BD00BF85
:106940004A11012301F01F0150F822008B4018402A
:1069500070470000F0B50C4689B008220646FFF7E4
:106960006AFEE36A0393236B0493636B0593A36B43
:106970000693E36B0793002769466A460823684637
:10698000029701970097FFF7ABFA314605466A4632
:1069900008233046FFF7A4FA236B0393636B049339
:1069A000A36B0593E36B0693054469466A46082387
:1069B00068460797FFF794FA314605446A4608236C
:1069C0003046FFF78DFA236A0093636A0193A36A46
:1069D0000293A36B0693E36B0793054431466A4623
:1069E00008233046059704970397FFF779FA636AFF
:1069F0000093A36A0193E36AA26B0293636B039310
:106A000004920693E26B236A05920544079331468C
:106A10006A4608233046FFF763FAE36A0093236B64
:106A20000193636B0293236A0693A36A0793054459
:106A300031466A4608233046059704970397FFF7C7
:106A40004FFF236B0093636B0193A36B0293E36B84
:106A50000393636A0693E36A07932D1A31466A46E5
:106A60000823304605970497FFF73AFF636B0093BE
:106A7000A36B0193E36B0293236A0393636A04930A
:106A8000A36A0593236B07932D1A31466A460823A0
:106A900030460697FFF724FFA36B0093E36B019347
:106AA000636A0393A36A0493E36A0593636B079392
:106AB0002D1A314630466A46082302970697FFF79B
:106AC0000FFF2D1A16D5304631460D4A0823FFF721
:106AD00007FA4519F7D410E0094831460822FFF7B4
:106AE00037FA012809D030463146054A0823FFF716
:106AF000F7FE2D1A002DEFD0F5E709B0F0BD00BF6D
:106B000078D10700F8B5036813F0010506460F4673
:106B1000144605D001463A462346FFF7E1F90546FB
:106B200030462146FFF77AFD45B104F18042013A33
:106B300056F8223043F0004346F82230F8BD2DE9E4
:106B4000F04115468AB00446884602A8002120225A
:106B5000FEF7E7FC2E780323204641462A462F1DE8
:106B600076B20293FFF78DFB2046214602AA3B46F0
:106B70000096FFF796FB2046214642462B46FFF73C
:106B800070FB00962046214605F184023B46FFF744
:106B9000B7FA0AB0BDE8F08100F01F020121914070
:106BA0004009800000F1E020C0F88012704700F03A
:106BB0001F02012191404009800000F1E020C0F84F
:106BC0000011704700F01F02012191404009800030
:106BD00000F1E020C0F8001270474907090E0028B4
:106BE00006DA00F00F0000F1E02080F8141D704775
:106BF00000F1E02080F8001470470000BFF34F8FD1
:106C000005480168054A01F4E06111430160BFF3E2
:106C10004F8F00BFFDE700000CED00E00400FA0517
:106C200007480021C0F84011C0F84411C0F84811CD
:106C3000C0F84C11C0F80011C0F8041105F080BD77
:106C40000010014070B5074B0646144618780D46F3
:106C500008B900F077FA224629463046BDE8704070
:106C600000F002B8D03D002070B50E46144900EB8C
:106C7000400001EBC0051446E86A183520B1012830
:106C80000FD0022805D113E0284600F08FFAA04269
:106C900001D2002411E022463146284600F0ACFB28
:106CA0000BE0284600F082FAA042F4D20446F2E754
:106CB0003146284600F073FB0446204670BD0000B4
:106CC000D03D00200FB408B504A900916A4603998D
:106CD00000F003F801B05DF814FB2DE9F04198B025
:106CE000064607A8029040200025CDE90305CDE91E
:106CF000055690460C4614F8011B002973D025292F
:106D000008D002A800F02CFB05980028F3DA18B090
:106D1000BDE8F08100200122217823291ED02B29F3
:106D200019D02D2902D0302908D102E040F001000D
:106D300001E040F00200641C002AEDD1002221781D
:106D4000A1F130030A2B0CD202EB820201EB4202CA
:106D5000303A641CF3E740F00400ECE740F0080030
:106D6000E9E70023CFB22E2F0BD114F8011FA1F1B8
:106D700030070A2F05D203EB830301EB4303303BBB
:106D8000F3E76C290DD068290BD0702954D00BDCA7
:106D9000252916D0582931D063290CD0642913D164
:106DA00014E014F8011BECE7732934D075291BD0CB
:106DB000782909D122E0D8F80000011DC8F8001098
:106DC000017802A800F0CCFA641C9DE7D8F8001006
:106DD0000F1DC8F800700968CDE900200A2202A83A
:106DE00000F0F0F9F0E733E0D8F800100F1DC8F814
:106DF00000700968CDE900200A2208E0D8F80010E8
:106E00000F1DC8F800700968CDE90020102202A803
:106E100000F03CFAD8E7D8F80000011DC8F80010CF
:106E2000076817F8011B0029CED002A800F098FAD5
:106E300005980028F5DAC7E7D8F80000011DC8F862
:106E4000001001680820CDE9000503461022DEE7A6
:106E5000059800287FF75BAF049820B1024607A988
:106E60003046FFF7EFFEDDE90410084405904EE7D9
:106E70000149024801F0C8BFA032002000300040A4
:106E800005F0D6BB074810B5406830B180470028F0
:106E900007D0BDE8104000F065BCBDE8104001F02F
:106EA00041BF10BDD82C0020F0B598480023021D2A
:106EB00001780125101D4FF08056062907D114785E
:106EC000240704D10478C4F30314032C02D0062948
:106ED00004D00FE08F4F8E4C7C670EE014782407AF
:106EE00008D10478C4F30314032C06D0042C04D076
:106EF000052C02D0062907D00EE0D6F84442864F72
:106F0000C4F342343C6002E01478240704D10478CE
:106F1000C4F30314032C02D0062906D011E07F4CE1
:106F2000276827F0807727600EE01478240708D1BF
:106F30000478C4F30314032C06D0042C04D0052CCD
:106F400002D006290AD011E04FF08044C4F80C3179
:106F5000C4F81031704C241F236002E01478240719
:106F600004D10478C4F30314032C02D0062905D0FD
:106F70000CE0694F032464373C600AE0147824076E
:106F800004D10478C4F30314032C02D006290DD0D5
:106F900014E0634F05243C60614C78342560604CFC
:106FA000083423603F243F1D3C6002E0147824072E
:106FB00004D10478C4F30314052C02D0062957D059
:106FC00068E058490968584A11605649091D09681E
:106FD000121D1160534908310968121D1160514991
:106FE0000C310968121D11604E4910310968121DDB
:106FF00011604C4914310968121D1160494918315A
:107000000968494A2032116046491C310968121D3D
:107010001160444920310968121D11604149243131
:107020000968121D11603F4928310968121D11605D
:107030003C492C310968121D11603A493031096808
:10704000394A40321160374934310968121D1160E4
:10705000344938310968121D116032493C310968E0
:10706000121D11602F4940310968121D116002E0A4
:10707000117809070ED10078C0F30310032803D05C
:10708000042801D0052805D1D6F85802274900F078
:107090004F00086021487438016841F470010160B4
:1070A000BFF34F8FBFF36F8F4FF01021D1F8000265
:1070B000002803DBD1F80402002822DA1C4A1560FC
:1070C0001C480468002CFCD01524C1F80042056857
:1070D000002DFCD0C1F8044201680029FCD01360E7
:1070E00001680029FCD0BFF34F8F0C48F0380168CD
:1070F000114A01F4E06111430160BFF34F8F00BFFB
:10710000FDE70F490D480860F0BD0000E00F00F0FA
:107110000DF0ADBA00C007403C050040FCED00E0BA
:10712000105600400404001020C50040E40E00404A
:1071300004E5014000E401400400FA050090D0039A
:10714000F02C002010B5124C02202061606111A0CB
:10715000A061A4F58260E0614FF4806020620020AD
:10716000A06260620BA1A164E062A4F11001E1647D
:1071700010212165A0656065E06509A1E01DFEF7AD
:10718000E6F908A12046FEF7E2F92020A07110BD23
:10719000D03D00205465726D696E616C0000000086
:1071A0005254540053454747455200000269C16894
:1071B0008A4203D88068401A104400E0501A401EEA
:1071C000704700002DE9FC5F0E008146DDE90C47A9
:1071D000C6F1000098469346824600D40846012531
:1071E00003E000BF90FBFBF06D1C5845FADAA845A0
:1071F00000D9454624B1002E01DB780700D5641E76
:10720000B80702D5B8F1000F0FD0F8070DD164B15F
:10721000A5420AD220214846641E00F0A1F8D9F800
:107220000C000028F3DABDE8FC9FD9F80C00002818
:10723000F9DB002E02DA56462D2102E0780707D549
:107240002B21484600F08CF8D9F80C000028EADB26
:1072500007F0030002280FD1B8F1000F0CD15CB188
:10726000A54209D230214846641E00F079F8D9F8C9
:107270000C000028F3DAD6E7CDE9004743465A462A
:107280003146484600F002F8CDE700002DE9F84FFE
:107290008246DDE90A4B0126984691460D4608468E
:1072A000374602E0B0FBF9F07F1C4845FAD2B845FA
:1072B00000D947465FEACB7017D1B4B15FEA8B7053
:1072C00002D5B8F1000F02D0202000900BE0302052
:1072D000FBE75046641E009900F042F8DAF80C0013
:1072E000002838DB0CB1A742F3D3DAF80C000028F1
:1072F00031DB00BFB8F1010F02D9A8F1010803E0AA
:10730000B5FBF6F0484502D306FB09F6F2E7DFF8D5
:107310004C8000BFB5FBF6F000FB165518F80010C6
:10732000504600F01DF8DAF80C00002803DBB6FB2D
:10733000F9F6002EEED15FEACB700CD0002C0AD00B
:10734000A74208D220215046641E00F009F8DAF85E
:107350000C000028F2DABDE8F88F00001CD107000D
:1073600010B50446D4E90130421C934205D323688A
:107370001954A260E068401CE060D4E90102824236
:1073800009D121682069FFF75DFCA168884203D01C
:107390004FF0FF30E06010BD0020A06010BD2DE96F
:1073A000F047C4681746894606464FF00008306922
:1073B000A04201D9051B02E0B168201A0D1AB0687D
:1073C0006D1E001BA84200D80546BD4200D33D46B5
:1073D00070682A4620444946FEF788F8B0687F1B4B
:1073E0002C44A844A944A04200D10024F460002FFA
:1073F000DDD14046BDE8F0872DE9F041C66804467E
:10740000174688468068851B6068BD4206D93044AF
:10741000FEF76CF8F019E060BDE8F0812A463044D0
:10742000FEF764F87E1B08EB050132466068FEF744
:107430005DF8E660F0E7000010B52DED020B2DEDD4
:10744000088B84B09DED0C0B51EC100BFEF76CF922
:1074500041EC180B9DED0C0B53EC182B51EC100B61
:10746000FEF75BF941EC190B0D989FED290B10F01D
:10747000004F53EC102B51EC190B9FED21AB9FEDFE
:1074800022BB0ED0FEF794F90ED953EC1B2B51EC16
:10749000190BFEF7A5F91CD214E000BF41EC180B44
:1074A00017E0FEF785F906D253EC1A2B51EC180BB6
:1074B000FEF733F9F2E753EC1B2B51EC190BFEF7F7
:1074C0008FF906D853EC1A2B51EC180BFEF784F801
:1074D000E4E78DED028B9DED0C0B18EE901A10EE8B
:1074E000900A8DED000B61F31E0003909DED020BE1
:1074F00004B0BDEC088B02B010BD0000000000001D
:10750000000000000000F03F000000000000E03F2D
:10751000000000000000E0BF02E008C8121F08C120
:10752000002AFAD170477047002001E001C1121F04
:10753000002AFBD1704700000121202803DA814096
:107540000548014003E0402802DA2038814009B1B3
:107550000120704700207047FC06FFBC2DE9FC4766
:10756000002517880646158090F82D001446894698
:1075700030B13A462146484600F018FB050009D1D3
:10758000B0784FF00C0A18B32088C846001DB842E6
:1075900002D95046BDE8FC87684679DF0028F9D15A
:1075A0002088032108F8001020881921401C80B28F
:1075B000208008F800102088401C80B2208000EB5A
:1075C0000801BDF8000005F00EFB2188084420806A
:1075D000F0780222C8B1218896F9033001F1030C3A
:1075E0004846BC45D5D8425421884FF0010C491C6F
:1075F00089B2218000F801C02188491C89B221800C
:1076000009F801302088401C20807068B8B12188BA
:1076100090F9003001F1030C4846BC45B9D84254FA
:1076200021880A22491C89B2218042542188491CA0
:1076300089B2218009F801302088401C20803089DF
:1076400050B1CDE900474B460622022106F1080061
:1076500005F020FB05009DD1308A50B1CDE90047EF
:107660004B460722032106F1100005F013FB05002D
:1076700090D1308B50B1CDE900474B4615221421F3
:1076800006F1180005F006FB050083D1306A30B121
:107690003B462246494600F0FBFB0500DBD1706A01
:1076A00030B13B462246494602F060F90500D2D18E
:1076B00096F82C0038B13B4622464946304604F045
:1076C00029FD0500C7D1307838B13B4622464946EE
:1076D000304602F093F90500BDD128465AE7000074
:1076E000F0B51E4D93B0287A800702D5002013B064
:1076F000F0BD002401278DF84A704FF65960ADF8AF
:1077000048000E940F941094062611943821684670
:10771000FDF705FF02208DF8000012A88DF8024049
:1077200003908DF80360ADF808700021684600F002
:1077300095F90028DBD18DF840402820ADF84200B3
:107740008DF838400F94ADF844400EA873DF002840
:10775000CDD1A86840F00200A860C7E7602C0020E7
:10776000FFF74CFAFFF74AFA2DE9F84F254C81460E
:10777000924660880E46814241D800274FF6FF7836
:107780008DF80070684600F02BF922786078A188A7
:10779000884201DA401C00E00020C0B2904204D1CF
:1077A0009DF8000000F040F927E065786078884295
:1077B00001DA401C00E0002060709DF8000000F03D
:1077C00033F9454519D0A068B9F1000F40F835A04C
:1077D0000DD066B16188E068324605FB010049467C
:1077E000FDF784FEA06800EBC500868002E000EB98
:1077F000C50087800020BDE8F88F0420FBE7092042
:10780000F9E70000A42C002010B50E4C03E0401C4A
:1078100000E00020207020786178814210D022782A
:107820006188E068A36802FB010003EBC20153F822
:107830003220898890472078A1888842E9DAE6E7F3
:1078400010BD0000A42C002030B5CB0008339DB241
:1078500093074FF0000401D0072030BD044B9A601D
:107860002A44DA605C701C7058809980002030BD1A
:10787000A42C0020074B5B6823B12AB120B100681B
:10788000037C1BB108207047072070474174426198
:1078900000207047C42C002010B50446082902D0EF
:1078A0000020FFF75FFFD4E90010BDE81040084753
:1078B0001CB5044ACDE9000108216846FFF754FFD2
:1078C0001CBD0000997807002DE9F047074698464F
:1078D0001446894690074FF0000526D12CB304F0DA
:1078E00087FB134E06F11000C6F80C80057045703A
:1078F00080F8029044607560357075701420FFF751
:107900004BF906211420FFF768F91420FFF74FF90F
:107910000848076006211120FFF75FF90548001F9E
:107920000068B0600020BDE8F0870720FBE700009A
:10793000B42C0020081501402DE9FC47DFF87890B1
:10794000D9F8043073B368B3052902D20720BDE823
:10795000FC87436933B3437C012B25D000270446C1
:107960000025884616468DF80050684600F038F825
:1079700001A805F077F9C8B1012101700F494460F1
:107980000968C0E90218C0E904769DF8040089F886
:1079900001009DF8000000F047F81420FFF712F9ED
:1079A0002846D4E70820D2E70F46D8E704259DF8FB
:1079B000000000F039F8F3E7C42C00200415014062
:1079C0000649496839B130B1416921B100210174DA
:1079D000022104F091BE082070470000C42C002052
:1079E00030B5EFF3108172B60D4A9468012324B1CB
:1079F0000370002900D162B630BD93604FF0E023E0
:107A0000D3F88051074C25401560C3F88041D3F866
:107A1000844154605A17C3F8842100220270E8E7B9
:107A20004C390020FC06FFBC0B498A68002A11D0A3
:107A300000280FD1EFF3108072B60B684FF0E022F0
:107A4000C2F800314B68C2F8043100228A60002875
:107A500000D162B6704700004C390020F0B50C46EA
:107A600093B01F210726ADF80010ADF804100027D1
:107A700050B1C17849070DD56A4602A9FFF76EFDDE
:107A8000002808D102AD02E00025ADF800706CB10D
:107A9000E07810B1304613B0F0BD01AA0AA9204623
:107AA000FFF75CFD0028F6D10AAA02E00022ADF83B
:107AB0000470BDF80400C3B2BDF80000C1B228468E
:107AC00072DFE8E770B5054601461C220F48FDF756
:107AD0000DFD0F4C00262670286830B101686160EA
:107AE0004068A060201D7ADF02E00948001D7BDFAE
:107AF00000280AD14FF6FF7060806670BDE87040C4
:107B0000044A00210448FFF7B5BE70BDE8320020EA
:107B10004C2C002005CC07004CCF070070B51E4C44
:107B2000068800231B49E289102E15D01B4D112E0B
:107B30001CD0122E29D0502E17D130F8061F91429A
:107B400013D14189022910D10C3000F028F988B1F5
:107B5000BDE8704000F0E2B984884C800469CC60D4
:107B6000406908614B70002AF2D070BD4FF6FF707B
:107B700048804B702868FFF723FF0028F5D0A169E3
:107B80000029F2D0BDE8704008478268CA60C0682A
:107B90000861DDE74C2C0020E83200204CCF0700C4
:107BA00001480068FFF70CBF4CCF07007CB50546C5
:107BB00008880C460930904201D90C207CBD6846EB
:107BC0006DDF0028FAD121880820685420881B2105
:107BD000401C80B2208029542088401C80B2208024
:107BE0002844DDF801100160BDF80510818020886F
:107BF000801D80B220809DF80010490800D001212E
:107C000029542088401C208000207CBD30B585B0E0
:107C100004002AD0164D4FF6FF702246288001201E
:107C20008DF812004FF65960ADF8100004A901203C
:107C3000A0DF002817D10F4B0FCB8DE80F00A11C40
:107C4000684663DF00280ED1204600F0ABFB002819
:107C500009D1204600F06AFA002804D1A86840F053
:107C60000100A860002005B030BD0E20FBE7000039
:107C7000602C002054CF070070B5124C0025A0687E
:107C8000410701D5002070BD40F00400A0600E48FF
:107C900002F02AF82088A0F57F41FF3904D0132193
:107CA00076DF0500EFD109E0207A800706D574DF82
:107CB0000028E8D1A06840F00200A060FFF770FF44
:107CC000284670BD602C0020C0D4010000B52848B3
:107CD00089B00068079002F0FFFCC0B9254813DFA7
:107CE000A8B9254B4FF4A672244907A804F01CFC40
:107CF00008B1FFF737FD01216A46084604F0D4FBBE
:107D000028B91720ADF81000684604F0C3FB00281E
:107D10002BD11B4804F0B4FB002826D100F0CAFF89
:107D2000002822D11748FFF771FF00281DD11C2120
:107D30006846FDF7F4FB40F6CD4001904FF48040DB
:107D4000029003208DF80C000020ADF80E008DF895
:107D500010000D4806906846FFF7B4FE002804D1D5
:107D600009B05DF804EBFFF7BBBC09B000BD000033
:107D700050CF070000500700F9C40700043300206B
:107D80008D7D070050340020197F070010B5044690
:107D9000FFF7C4FE2046BDE8104002F095BF007812
:107DA00000F00100704710B543689C18446021B989
:107DB00005E013F8010B01F8010B521EF9D2012066
:107DC00010BD000038B10549814204D80449814200
:107DD00001D901207047002070470000F42C0020DA
:107DE000042D00202DE9F05F26484168F1B3DFF84B
:107DF00098B00E688146DBF8004087688078E11B08
:107E000021F07F45ED1CB0B9DFF880804FF4803061
:107E1000C8F84403C8F804031120FEF7BDFE112082
:107E2000FEF7C5FE4FF0010AC8F800A02F2001F0B0
:107E3000E7FF89F802A0B54200D23546124BE81997
:107E40003C3320F07F401860DBF800105A46091BD5
:107E500021F07F41001B20F07F40C91C81420FD9D7
:107E6000106818602F2001F0CBFF00E004E0BDE8AF
:107E7000F05F1120FEF7A6BEBDE8F05F04F0B8B8D1
:107E8000BDE8F09FB42C0020041501400010014013
:107E90002DE9F04117880646B81D14460D46984254
:107EA00002D90C20BDE8F0813188072206290AD3C7
:107EB0004FF4486C4FF6FF73614501D9994202D1E6
:107EC0007088062801D21046ECE7604501D9984237
:107ED000F9D1994203D0984201D08142F3D80520CC
:107EE000E85520881221401C80B220802954208827
:107EF000401C80B220804119308804F074FE218833
:107F0000084480B220804119708804F06CFE2188FA
:107F1000084420800020C5E7FFF724BCF8B51348CB
:107F200000F0CEFF114D0026114C0C3D30B16169BF
:107F3000B9B101208DF80000684611E0287820B121
:107F4000616971B18DF80060F6E7687858B1A16891
:107F5000084800220068FFF7EFFC10B1A16901B1E9
:107F600088472E70F8BD6168F2E70000582C0020A9
:107F7000E83200204CCF0700F0B54FF0FF3622B1B9
:107F80001268D24300230A4D0DE03246FAE7C45C82
:107F900062400824D70700D037462F4087EA5202B4
:107FA000641EF7D15B1C8B42F1D3D043F0BD0000BF
:107FB0002083B8EDF0B5146906468DB020681546EB
:107FC000271DE0B1022920D00A2000906B4609AAA3
:107FD000304603F0EFFE00280FD009A901A8009A4F
:107FE00003F0CEFD01AE96E80F0005AE86E80F0067
:107FF000236869683A4605A898470DB0F0BD0DB0F2
:108000003046BDE8F04003F02FBE6946304603F02D
:10801000C1FD0028F1D0236869683A466846984750
:108020000028EAD002980028F5D10198706001205C
:10803000E3E753685B7813F0C00303D0402B03D011
:108040000020704700F002B8FFF7B4BF2DE9FF41F0
:108050000B465168064614464878334D00F00F022F
:1080600010F0300055F8225006D0102806D02028F5
:1080700008D0302856D13EE022694DE061690120E8
:10808000087047E0022B28D1042A26D84FF00108B7
:1080900069463046676903F07DFD00281AD009E083
:1080A0000B79226913FB00226846A84770B1387823
:1080B000401C3870029820B1616838784A79904243
:1080C000EED301987060029860BB02E04FF00008A8
:1080D000F7E7404604B0BDE8F081D4E904300F79F9
:1080E000027817FB023349798A421BD2521C027074
:1080F0001A46616810E008786169072A087009D19A
:10810000606801792069FDF70AFA60682169806872
:1081100003F05BFD2269616804B03046AC46BDE8FF
:10812000F04160470020D5E7F8D0070010B58EB0C9
:1081300004461C216846FDF7F2F9142108A8FDF752
:10814000EEF99DF80010002041F0180107908DF81D
:108150000010A1788DF836100121ADF834109DF88B
:108160001C1004F10C0321F0FF018DF81C109DF888
:108170001D1008AA21F00F01491C21F0F001103157
:108180008DF81D109DF81E1021F00601891C41F08C
:1081900011018DF81E100DA9089107A90991172149
:1081A000ADF82C100C9020886946A2DF0EB010BDEF
:1081B00002488168491E816070470000002C002041
:1081C0001FB50E4800F15C01826B684603F0D8FCD5
:1081D0000B489DE80E0080E80E00094909480B4A4B
:1081E000C86009490020086048600949044803F054
:1081F00064FA002800D0012004B010BDF037002040
:1082000090320020E9B907001C2C0020042D00202A
:1082100078CE07002DE9F0411F461600054600F113
:1082200004044FF0000127D037B394F85F0018B171
:1082300094F8600001281FD0207AE8B1E068342863
:108240001AD100204FF44053227C13E004EB800C41
:10825000B3F80CE0DCF814C0F4450AD194F825001A
:108260004B4A60B1012813D002280DD0032803D156
:108270000AE0401C8242E9DC0A20BDE8F081217856
:108280000029F9D0916803E021780029F4D0D16861
:1082900020B1022806D0032807D103E06068884295
:1082A000EAD302E060688842E6D995F870000028B9
:1082B000E2D13948374903460160202141603A46FE
:1082C0003146052001F001FC0028D5D1314895F850
:1082D000712005F172012030FDF708F92E482D4973
:1082E00008382031016095F87110416003462A4A30
:1082F0002A49042001F00FFC08B10520BDE7264DF6
:1083000000201C3D286194F8251041B3012933D089
:1083100023480229C0F5FC2027D00329ACD194F8CA
:108320002C100029A8D094F826100029A4D0A26A05
:10833000216B53182B6132B329B381420DD820220F
:1083400004F13F011348FDF7D1F82869D8B1124A6A
:108350000021103A02F056F8B8B104208DE794F8E5
:108360003400002888D0A06B0BE094F82C10002972
:1083700082D0216B2961E0E794F82600002885D09F
:10838000A06A2861DBE7032077E7012075E700009A
:10839000F0370020303200201C2C00209CCE07003B
:1083A0000050070010B58EB004461C216846FDF74A
:1083B000B6F8142108A8FDF7B2F89DF800100020C7
:1083C00041F0040107908DF80010A1788DF8361067
:1083D0000221ADF834109DF81C1008AA21F0FF010D
:1083E0008DF81C109DF81D1021F00F01491C21F083
:1083F000F00110318DF81D109DF81E1021F00601BE
:10840000891C41F001018DF81E100DA9089107A9E2
:1084100009911421ADF82C100C902088231D694679
:10842000A2DF0EB010BD0000044A09B9002313708A
:108430005268002A00D01047704700009C2C002092
:1084400000EE100ADFED110AB8EE400A60EE200AD5
:1084500000EE101AB8EE400AF4EEC00AF1EE10FA7F
:1084600010D300EE100ADFED0A0AB8EE400A60EE03
:10847000200A00EE101AB8EE400AF4EEC00AF1EE3F
:1084800010FA01DD01207047002070479A99993F4A
:10849000CDCC4C3F2DE9FC4100270D46ADF80470D2
:1084A00088B1016879B14A686AB186685EB10379BA
:1084B000102B0BD853B14279072A0CD901244FF461
:1084C0006E7300940FE00E20BDE8FC81012440F2A1
:1084D000B133009407E00C7864B1012C0AD0012478
:1084E00040F2BF33009485A28F490020FEF7EAFBDB
:1084F0002046E9E78D4CC4E9011662702361007BD8
:108500008B49A070521ED1404FF2F000E16004F0A0
:1085100081F800F0ABF9A06800F01EFA060003D065
:108520004FF475730096D1E03DB100F071FA05008B
:1085300003D040F2D93300950AE06078702100073B
:10854000000E00F0C7F9050009D040F2DE330095B7
:108550006AA275490020FEF7B5FB2846B4E700255E
:108560004FF00108BCE06068724A00EBC50041684A
:1085700009684F7240680021001DFFF77BF9060073
:1085800003D040F2E6330096A0E001AA0721284676
:1085900001F072F9060003D040F2E933009695E04D
:1085A000BDF80410002000F067F9060003D040F287
:1085B000ED3300968AE00021BDF8040000F028F9B0
:1085C000060003D04FF47C7300967FE0BDF80410E2
:1085D000002000F005FA060003D040F2F3330096C5
:1085E00074E0BDF80410002000F0E3F9060003D0A9
:1085F00040F2F633009669E0BDF80410002000F068
:10860000C1F9060003D040F2F93300965EE0284637
:1086100001F03EF8D8B1606800EBC500407801F089
:1086200025F9060003D040F2FE3300964EE0606864
:1086300000EBC500417808FA01F081B2002000F09B
:10864000FEF8060003D040F2014300963EE02846C3
:1086500001F02AF8F0B3606800EBC500407801F043
:1086600005F9060003D040F2074300962EE060684B
:1086700000EBC500807801F0F9F8060003D040F265
:108680000A43009622E0606800EBC500C07801F064
:10869000EDF8060003D040F20D43009616E0606846
:1086A00000EBC50042788378C07808FA02F208FA35
:1086B00003F308FA00F11A430A4391B2002000F0D4
:1086C000BEF806000BD040F2124300960BA21649EA
:1086D000002000E003E0FEF7F5FA3046F4E66D1CFA
:1086E00020698542FFF43FAF00F080F8040003D01A
:1086F00040F217430094F6E60020E5E62E2E5C2EAD
:108700002E5C2E2E5C2E2E5C736F757263655C641E
:108710007269766572735C6472765F6578745F6C9B
:10872000696768742E6300002CD10700302C00208C
:1087300080841E002597070038B5044612480D4670
:108740000069401E844201D8102C01D9012038BD97
:108750002DB1204600F09CFF18B1032038BD0E203B
:1087600038BD2946204600F0BBFC040009D040F289
:108770009F3306A2104900200094FEF7A3FA20467A
:1087800038BD002038BD0000302C00202E2E5C2E7D
:108790002E5C2E2E5C2E2E5C736F757263655C648E
:1087A0007269766572735C6472765F6578745F6C0B
:1087B000696768742E6300002CD1070021EA00026B
:1087C00002F06F0221F06F0310B51A43104202D17C
:1087D0000143090601D5022010BD01461E2003F009
:1087E00055FB08B1002010BD012010BD10B5074C8D
:1087F000206848B1406802F02DF92068406802F016
:10880000BBF90020206010BD012010BD242C0020E9
:1088100070B50D460446284201D0022070BD2A0AD8
:10882000210A102003F032FB38B1EAB2E1B2112084
:1088300003F02CFB08B1002070BD012070BD70B5A5
:108840000D460446284201D0022070BD2A0A210AA2
:108850000E2003F01BFB38B1EAB2E1B20F2003F0A7
:1088600015FB08B1002070BD012070BD014900203A
:1088700008607047242C002070B50D46044628423D
:1088800001D0022070BD2A0A210A002003F0FEFA5E
:1088900038B1EAB2E1B2012003F0F8FA08B10020E1
:1088A00070BD012070BD70B50D460446284201D050
:1088B000022070BD2A0A210A202003F0E7FA38B10D
:1088C000EAB2E1B2212003F0E1FA08B1002070BD64
:1088D000012070BD10B58143084201D0022010BDB7
:1088E0000A4601461F2003F0D1FA08B1002010BD4E
:1088F000012010BD2DE9F04117460C4600F096FF0F
:1089000027EA040506462C4206D1FF2E04D044EA8D
:10891000070010F4600F02D00220BDE8F081C5F31B
:108920000742C4F30741304603F0B0FA88B1701C27
:10893000C0B2C5F30722C4F3072103F0A7FA40B180
:10894000B61CEAB2E1B2F0B203F0A0FA08B100201E
:10895000E3E70120E1E7000070B5094D044628680F
:1089600030B9D4E9010100231A4603F083FF08B1AE
:10897000012070BD606802F085F800202C6070BD99
:10898000242C002070B50D460446284201D0022058
:1089900070BD2A0A210A0A2003F078FA38B1EAB237
:1089A000E1B20B2003F072FA08B1002070BD012083
:1089B00070BD70B50D460446284201D0022070BD3E
:1089C0002A0A210A082003F061FA38B1EAB2E1B2BA
:1089D000092003F05BFA08B1002070BD012070BDD2
:1089E00070B50D460446284201D0022070BD2A0A07
:1089F000210A062003F04AFA38B1EAB2E1B20720B0
:108A000003F044FA08B1002070BD012070BD0000E1
:108A100008B50BA0694600680090022000F0D8FF5E
:108A200058B102200DF1020100F0D2FF28B140F64A
:108A3000B83001F0CDF8002008BD012008BD0000CD
:108A40007D127D342DE9F04116460C4600F056FFAC
:108A500026EA040507462C4207D1FF2F05D044EA39
:108A600006004EF2E001084202D00220BDE8F0818B
:108A7000210A2A0A384603F009FA40B17F1CEAB2FB
:108A8000E1B2F8B203F002FA08B10020EEE70120EB
:108A9000ECE7F8B51C4617460D46060018D0BDB1E8
:108AA000B4B100F01BFAA8B1284600F017FA88B15B
:108AB000204600F013FA68B1FDF7A4F800902346B1
:108AC0003A4629463046FDF7A1F828B10020F8BD06
:108AD0000E20F8BD1020F8BD0B20F8BD0E4910B5D2
:108AE0000A784C780023A24212D0521CD2B20A70EB
:108AF000022A00D10B70084A0B78183252F8232052
:108B000002608868104420F07F408860012010BD1A
:108B10000360002010BD0000B42C0020F8B506460C
:108B20001A481F46154600780C46C00708D0304644
:108B3000FFF748F930B13CB1200507D00620F8BD59
:108B40000120F8BD0220F8BD0320F8BD3068A04226
:108B500004D8716804EB0530884201D90520F8BDBE
:108B60007DB1684603F0C4F868B100980221C0E9FD
:108B700000670172210B8181058203F00DF900204D
:108B8000F8BD0420F8BD0720F8BD0000D42C00205B
:108B9000084A136823F00103136031B143F0020364
:108BA00013604268002A03D0104723F00203F7E75E
:108BB00070470000982C00200348017841F0010123
:108BC0000170002070470000D42C00202DE9F843EC
:108BD00007461D48DDF820801E46007815460C46E5
:108BE000C0070CD03846FFF7EDF850B15DB154B175
:108BF00045EA0400800708D00620BDE8F88301207C
:108C0000FBE70220F9E70320F7E73868A04204D821
:108C1000786804EB8601884201D20520EDE77EB139
:108C2000684603F065F868B100980121C0E9007852
:108C30000172C0E90354868203F0AEF80020DCE73D
:108C40000420DAE70720D8E7D42C002070B5174AB3
:108C500017490446106E0B7800EB400002EBC00091
:108C60009D0715D5022C02D0032C1BD102E002F087
:108C700027F917E04A78521CD2B24A70032A11D958
:108C800000224A70082103F00BFA03F01BF809E0F8
:108C9000580707D523F004000870526E12B140F057
:108CA00002000870BDE8704003F03EB8583900205B
:108CB000D42C002010B586B000249DF8000001944B
:108CC00020F00F00401C20F0F00010308DF8000064
:108CD000029403A86DDF00281CD19DF80D00401CF4
:108CE0008DF80D0003A86CDF002813D109220AA11A
:108CF00068467CDF00280DD10C20ADF80400182058
:108D0000ADF80600ADF808404FF4C870ADF80A00A1
:108D100001A87ADF06B010BD5468696E67794466B1
:108D200075000000F8B51D4C2078002834D020696B
:108D300028B10026E06820B1002526B113E0012605
:108D4000F8E70125F9E76078002825D1684648DF73
:108D5000052803D020B1FEF705FD04E0012602E05E
:108D60002169009888479DB96078002814D16088EF
:108D7000ADF800006946A06861DF052803D020B186
:108D8000FEF7F0FC04E0012502E0D4E90201884787
:108D9000002ED8D0002DD0D0F8BD0000D82C002057
:108DA000184A10B5117809B9431C08D00844C3B259
:108DB00014481370012B806803D073B11FE00220A8
:108DC00010BDE1B9FFF7C8FD08B1FEF7CBFC60218B
:108DD00040200BE0FEF7C6FC0CE001290FD1FFF7A5
:108DE000BBFD08B1FEF7BEFC60210020FFF7E6FCEA
:108DF0000028EFD1FFF7FAFC08B1FEF7B3FC002022
:108E000010BD0000302C00207FB50C46054691F8BF
:108E1000211094F82000CDE9000104F12602D11EB2
:108E20002846E36903F0C1FD002823D194F823000C
:108E300008BB207B022801D003281CD12269E169EC
:108E4000914218D16269E261E37B84F82030217E8F
:108E50000328C1F3401184F8211006D004B029463C
:108E60002046BDE8704003F03CBD009129462046F5
:108E700003F020FE7FBD04F10C0001AB07C883E8BE
:108E8000070094F82300002168B1D5F8C404C5F8A0
:108E9000C404820701D5012002E0400705D5022065
:108EA0008DF8000001E08DF8001084F82410207E79
:108EB0004007DFD4D4E90021684690477FBD000019
:108EC000054940880A88904204D34988884201D8DD
:108ED0000120704700207047502C0020800701D0EF
:108EE000002070470120704770B5054608680C46A1
:108EF0004A6886682846314602F088FD6068286125
:108F000004F10C00686170780221B1EB901F01D16F
:108F1000241D2C6170BD00002DE9F043264CA4F106
:108F200010092278D9F8048099F80350404694F843
:108F300001C0D9F8086031E002EB42036168521CBD
:108F400001EBC301A378D2B2934200D100220B7887
:108F5000022B02D0032B21D11DE003464F68194696
:108F600003E0B94203D00B46C969B9B1F9E7A9B129
:108F70008B4205D1C06918B9104E0125B560002695
:108F80000F68C969D96149B10B683B440B6005E0C2
:108F90000174C06900E000210028F9D19445CBD1CB
:108FA000C9E9010689F80350404502D00120BDE817
:108FB000F0830020FBE70000C42C002000100140DB
:108FC0002DE9F0412A4F0446002607F11005D7F895
:108FD00004803EE002D02046E4691DE028786968FC
:108FE00000EB4002401CC0B201EBC2012870AA781D
:108FF000904200D12E700A784868012A2BD1027C59
:109000004ABB8A684260CA6882600A69C26049696C
:109010008161F97801B146604368BA68DFF854C0ED
:10902000991A21F07F41614502D28268114406E01D
:10903000D11A826821F07F418A4202D9511A016017
:1090400000E006604660012186600174C66103F09D
:1090500035FB002CBED1287869788842BED179686A
:10906000414502D00120BDE8F0810020FBE700006F
:10907000B42C0020FFFF7F0030B500241470057869
:10908000012315B1847834B311E04578FF2D03D066
:1090900084785DB1CCB10AE0857845B9C578D5B999
:1090A0000579C5B94579B5B90C700CE024B1042433
:1090B0000C70C07838B130BDC47864B9047954B943
:1090C000447944B90B70137030BDC4781CB904796D
:1090D0000CB944790CB10324EAE70220087030BDD2
:1090E0002DE9F0439E4D06460C46686887B000EBBC
:1090F000C60009784268126811724068D4F80C8082
:109100004068FEF75DFC070003D04FF42D73009715
:10911000E2E005AA0721304600F0AEFB070003D0CD
:1091200040F2B7230097D7E001AA211DBDF8140033
:1091300003F01EFA0746012804D01FB140F2BD23F8
:109140000097C9E0231D03AA04A901A8FFF794FF13
:109150009DF810004FF0000905287DD2DFE800F0EF
:1091600003192F4D98000021304600F043FA050006
:1091700003D040F2C92300952AE004AB224601A99E
:10918000304600F007F9040066D04FF433730094C2
:10919000DBE00021304600F02DFA050003D040F25C
:1091A000D223009514E004AB224601A9304600F01A
:1091B000F1F80400E8D040F2D5230094C5E0032183
:1091C000304600F017FA05000BD040F2DB23009583
:1091D00064A26F490020FDF775FD284607B0BDE881
:1091E000F08304AB224601A9304600F0D3F8040016
:1091F000CAD040F2DE230094A7E00121304600F0FF
:10920000F9F9070003D04FF43973009764E004AB19
:10921000224601A9304600F0BDF8070003D040F215
:10922000E723009758E09DF80C000028ACD069684F
:1092300001EBC6014A681268C2F80490626860696E
:1092400049681044A26909681044086000F006FBF0
:10925000410CC303A87800E07EE04FF47A72401C12
:1092600010FB02F25008C41718186141D317FCF71D
:10927000FDF801466868324600EBC6004068406869
:10928000FEF75AFB040068D04FF43D7300945CE095
:109290009DF80C0058B18DF806900121304600F081
:1092A000A9F907000DD040F2FE23009714E0032136
:1092B000304600F09FF9070003D040F203330097D7
:1092C0000AE004AB224601A9304600F063F807002B
:1092D00009D040F20733009722A22D490020FDF764
:1092E000F1FC38467AE79DF80C00A8B3686800EBFB
:1092F000C60042681268C2F804806268616940680A
:109300001144A269006811440160084600F0A6FA01
:10931000410CC303A8784FF47A72401C10FB02F290
:109320005008C41718186141D317FCF79FF801467D
:109330006868324600EBC60040684068FEF7FCFAF9
:1093400004000AD04FF44573009406A2104900208F
:10935000FDF7B8FC204641E7FFE700203EE70000AC
:10936000302C00202E2E5C2E2E5C2E2E5C2E2E5CA1
:10937000736F757263655C647269766572735C6441
:1093800072765F6578745F6C696768742E6300003D
:109390002CD107002DE9F04F85B01E4690468B4634
:1093A000074600F075F92E4CB0B16068337800EBD9
:1093B000C7005A464178384600F06EF804004BD09A
:1093C00040F2822327A2324900200094FDF77AFC64
:1093D000204605B0BDE8F08F384600F065F900285A
:1093E0003CD06068002400EBC7000DF1100A417802
:1093F000019181780291C078039026A00DF10409B3
:109400000068049098F800001AF8041008420CD084
:10941000337819F824105A46384600F03DF8050014
:1094200016D040F28F2300950BE019F82410012389
:109430005A46384600F030F8050009D04FF425733D
:10944000009508A212490020FDF73CFC2846C0E721
:10945000641CE4B2032CD5D30020BAE70120B8E79E
:10946000302C00202E2E5C2E2E5C2E2E5C2E2E5CA0
:10947000736F757263655C647269766572735C6440
:1094800072765F6578745F6C696768742E6300003C
:109490002CD10700010204002DE9F8430E460120FB
:1094A000B0401FFA80F845481F4614468068FFF711
:1094B00053FA050003D04FF4FD73009517E0F7B1A0
:1094C000012F30D0002C42D0E0782178A27840EAF9
:1094D00001416078000240EAC2000143384A304648
:1094E000FFF708FA050034D04FF40773009535A252
:1094F0003F490020FDF7E6FB2846BDE8F8834146DA
:109500000020FFF7D0F9040003D04FF4007300945B
:109510004BE041460020FFF77BF904003ED040F2CB
:109520000323009441E041460020FFF7BCF904000A
:1095300003D040F20923009437E000214046FFF7B2
:1095400067F904002AD04FF4037300942DE00E2035
:10955000D3E7404603F050F860B1A08841F61F728F
:1095600041BA3046FFF76EFA040003D040F22523DB
:1095700000941AE000214046FFF795F9040003D05B
:1095800040F22923009410E041460020FFF740F903
:10959000040003D040F22D23009406E0FFF726F9E3
:1095A000040009D040F23123009406A210490020A3
:1095B000FDF788FB2046A0E700209EE7302C002026
:1095C000FFFF1F002E2E5C2E2E5C2E2E5C2E2E5C9E
:1095D000736F757263655C647269766572735C64DF
:1095E00072765F6578745F6C696768742E630000DB
:1095F0002CD10700F8B5184F06460D46786800EBE9
:10960000C60040680068417A14484156405781427C
:109610001AD009DA4FF00100FFF7C2FB040013D0A3
:1096200040F24713009408E04FF0FF30FFF7B8FB1B
:10963000040009D040F24D13009409A21349002000
:10964000FDF740FB2046F8BD786800EBC600406897
:10965000006845720020F8BD302C0020B0CE070015
:109660002E2E5C2E2E5C2E2E5C2E2E5C736F757251
:1096700063655C647269766572735C6472765F655B
:1096800078745F6C696768742E6300002CD10700E2
:109690000449496811F8300008B1002070470120E2
:1096A00070470000302C00200349496811F8300051
:1096B000012800D000207047302C002038B5054626
:1096C0000021FFF7A5F8040002D0C623009407E0AC
:1096D00029460020FFF79CF8040008D0C923009415
:1096E00004A20F490020FDF7EDFA204638BD002006
:1096F00038BD00002E2E5C2E2E5C2E2E5C2E2E5C95
:10970000736F757263655C647269766572735C64AD
:1097100072765F6578745F6C696768742E630000A9
:109720002CD10700F8B5404C0546606800EBC50138
:109730004E683068427A002A75D0012A05D0022A84
:1097400028D0032A6FD001201EE0406800B3410CEE
:10975000C303A0784FF47A72401C10FB02F2500849
:10976000C41718186141D317FBF780FE01462A463B
:109770007068FEF7E1F808B1FDF7F4FF0221284612
:10978000FFF738FF00284ED0BDE8F840FDF7EABFEC
:109790000021F4E74068002845D03068006800F0F8
:1097A0005DF8410CC303A0784FF47A72401C10FBA3
:1097B00002F25008C61718187141D317FBF756FE6E
:1097C000014660682A4600EBC50040684068FEF725
:1097D000B3F808B1FDF7C6FF01212846FFF70AFFDD
:1097E00008B1FDF7BFFFA068FFF7B6F808B1FDF7B5
:1097F000B9FF60686A4600EBC50040680068017AFE
:10980000284600F039F808B1FDF7ACFFBDF80000BC
:10981000FFF754FF08B1FDF7A5FFFEF7E7FF0028AB
:1098200001D0FDF79FFFF8BD302C002000EB400277
:10983000042801D2293208E000EB8001072801D872
:10984000213107E00B2802D83132D0B270470F28FF
:1098500002D81931C8B27047FF2070476421B0FBAD
:10986000F1F101EB810100EBC1007047102801D933
:1098700001207047002070472DE9F0410546002087
:10988000108014460E462846FFF702FF1A4F4FF08D
:10989000010830B1786800EBC500417808FA01F0A2
:1098A00023E02846FFF700FF18B3F00708D07868D8
:1098B000218800EBC500427808FA02F001432180BC
:1098C000B00708D57868218800EBC500827808FACF
:1098D00002F001432180700708D57968208801EBE8
:1098E000C501CA7808FA02F1084320800020BDE8CB
:1098F000F0810120FBE70000302C0020021F00EB6C
:109900008001032A01D8243103E00C38032802D84F
:109910001C31C8B27047FF20704700007CB500259D
:1099200001221E2000952B461146019501F070F989
:109930000D484FF0804404600323CDE9005300221A
:109940000B20114601F064F900F0BBF808B1FDF7F7
:1099500055F90548001D04604FF44050806800F040
:109960009BF800207CBD00000805005070B514462F
:1099700082880E4605462088111D0144921C99429A
:1099800001D8FE2A01D90C2070BD521C3254208807
:10999000FF21401C80B2208031542088401C80B2BE
:1099A00020808119288803F01EF92188084480B29C
:1099B0002080AA8842B1A96841B13044FBF796FDE6
:1099C0002088A98808442080002070BD072070BD31
:1099D00038B503460848006800280AD04468007873
:1099E000002200920A460146204601F0B3F808B171
:1099F000002038BD012038BD242C0020F8B50E46CB
:109A0000017814460546012901D1687830B12088D3
:109A1000821C9A422DD8012902D006E00720F8BD09
:109A200069780144891C994223D8181A801E87B28C
:109A3000ADF800702188B01C084469467DDF00281D
:109A4000EDD12878022805D1BDF80010B94201D81F
:109A500009210AE00821012805D16878B84202D816
:109A6000ADF8000001E0ADF80070BDF80000FE2880
:109A700001D90C20F8BD2288401CB0542088401C1D
:109A800080B2208031542088401C2080BDF8001016
:109A9000084420800020F8BD10B5044600F01CFEEC
:109AA00000280DD14FF0E021401EC1F88001204672
:109AB00013DF002804D12046BDE81040FBF7AABC04
:109AC00010BD10B500F07CFD10BD70B59CB01C46FB
:109AD00015460E46052802D006201CB070BD6068F1
:109AE000202801D00920F8E7684602F0DFFB0028B3
:109AF000F3D12A463146684602F098FC0028ECD1A2
:109B000001226846216802F049FB0028E5D12020A7
:109B100060600020E1E730B4042802D0062030BCA9
:109B200070474868402802D15868402801D0092071
:109B3000F5E71B68D2E9004508682A46214630BC93
:109B4000FEF7A7BF00283ED01F49204A096800BF82
:109B500000BF00BF00BF00BF00BF00BF00BF9142F9
:109B60002FD000BF00BF00BF00BF00BF00BF00BFBD
:109B700000BF00BF00BF00BF00BF00BF00BF00BFED
:109B800000BF00BF00BF00BF00BF00BF00BF00BFDD
:109B900000BF00BF00BF00BF00BF00BF00BF00BFCD
:109BA00000BF00BF00BF00BF00BF00BF00BF00BFBD
:109BB00000BF00BF00BF00BF00BF00BF00BF00BFAD
:109BC00000BF401EC3D17047F02C00200024F400D9
:109BD00000283ED01F49204A096800BF00BF00BFCF
:109BE00000BF00BF00BF00BF00BF91422FD000BF29
:109BF00000BF00BF00BF00BF00BF00BF00BF00BF6D
:109C000000BF00BF00BF00BF00BF00BF00BF00BF5C
:109C100000BF00BF00BF00BF00BF00BF00BF00BF4C
:109C200000BF00BF00BF00BF00BF00BF00BF00BF3C
:109C300000BF00BF00BF00BF00BF00BF00BF00BF2C
:109C400000BF00BF00BF00BF00BF00BF00BF401E7D
:109C5000C3D17047F02C00200024F40000283ED02F
:109C60001F49204A096800BF00BF00BF00BF00BFF6
:109C700000BF00BF00BF91422FD000BF00BF00BF98
:109C800000BF00BF00BF00BF00BF00BF00BF00BFDC
:109C900000BF00BF00BF00BF00BF00BF00BF00BFCC
:109CA00000BF00BF00BF00BF00BF00BF00BF00BFBC
:109CB00000BF00BF00BF00BF00BF00BF00BF00BFAC
:109CC00000BF00BF00BF00BF00BF00BF00BF00BF9C
:109CD00000BF00BF00BF00BF00BF401EC3D1704720
:109CE000F02C00200024F40000283ED01F49204A18
:109CF000096800BF00BF00BF00BF00BF00BF00BFBA
:109D000000BF91422FD000BF00BF00BF00BF00BF07
:109D100000BF00BF00BF00BF00BF00BF00BF00BF4B
:109D200000BF00BF00BF00BF00BF00BF00BF00BF3B
:109D300000BF00BF00BF00BF00BF00BF00BF00BF2B
:109D400000BF00BF00BF00BF00BF00BF00BF00BF1B
:109D500000BF00BF00BF00BF00BF00BF00BF00BF0B
:109D600000BF00BF00BF401EC3D17047F02C0020D1
:109D70000024F40000283ED01F49204A096800BF93
:109D800000BF00BF00BF00BF00BF00BF00BF9142C7
:109D90002FD000BF00BF00BF00BF00BF00BF00BF8B
:109DA00000BF00BF00BF00BF00BF00BF00BF00BFBB
:109DB00000BF00BF00BF00BF00BF00BF00BF00BFAB
:109DC00000BF00BF00BF00BF00BF00BF00BF00BF9B
:109DD00000BF00BF00BF00BF00BF00BF00BF00BF8B
:109DE00000BF00BF00BF00BF00BF00BF00BF00BF7B
:109DF00000BF401EC3D17047F02C00200024F400A7
:109E000000283ED01F49204A096800BF00BF00BF9C
:109E100000BF00BF00BF00BF00BF91422FD000BFF6
:109E200000BF00BF00BF00BF00BF00BF00BF00BF3A
:109E300000BF00BF00BF00BF00BF00BF00BF00BF2A
:109E400000BF00BF00BF00BF00BF00BF00BF00BF1A
:109E500000BF00BF00BF00BF00BF00BF00BF00BF0A
:109E600000BF00BF00BF00BF00BF00BF00BF00BFFA
:109E700000BF00BF00BF00BF00BF00BF00BF401E4B
:109E8000C3D17047F02C00200024F4002DE9F14FDD
:109E9000284C4FF440594FF48058206B666AD9F82B
:109EA0000820371A02EB000B4546AF4200D83D466A
:109EB00000220121584600F0DBFA002837D10023A8
:109EC0002A465846009900F035FB00282FD12A4633
:109ED0005846009900F0D4FB002828D10022012127
:109EE000009800F0C5FA5FEA000A20D1206B2844F0
:109EF0002063002000F036FD0098AB442844009019
:109F00007F1BD1D100223146D9F80800FEF734F882
:109F1000A16A814203D10121A661C4E90701054874
:109F2000243000F0A1FB002000F01CFD5046BDE8ED
:109F3000F88F0000F037002010B50A4C206A012885
:109F40000BD1E06958B14FF44050A16980680022FC
:109F5000FEF712F8E169814201D0002010BD012016
:109F600010BD0000F03700202DE9F0410E460A68D0
:109F70000C49496B551A0F182A4639460A4800F011
:109F80007FFB040007D02946384600F087FB0446D3
:109F90002046BDE8F081304600F066FB002000F06E
:109FA000E1FCF5E7F0370020005007002DE9F04113
:109FB0003E4C91F800C00E4615460127D4E90E101C
:109FC0003B023B4ABCF1070F6DD2DFE80CF06C049A
:109FD0001C37186C6600B06820B1984204D9042080
:109FE000BDE8F0810320FBE7304800259570202173
:109FF0003830FBF794FA2563B068A06354E06860DA
:10A00000206CA86050E0B26813188B4203D96860D6
:10A01000206CA860E6E7254B71685C331844FBF7B9
:10A0200065FAE06BB168214A0844E063D6E90101B2
:10A030004032FDF7A1FF2064E06BE0E7884201D0E9
:10A040000820CDE79078144608B10120C8E7FEF754
:10A05000B7F801281FD1174890F87410B9B100F271
:10A060008C5190F87A207830012A01D0052006E042
:10A070000F4A1C320CCAFEF7CDF8012801D0074662
:10A0800012E0002000F06EFC0120A0700CE00078CF
:10A0900008B10A2708E00520A2E7206CA860E06B61
:10A0A000C5E9003000E00227384699E7F037002084
:10A0B000002C0020042D002030B40B4B02464FF43E
:10A0C00040501C69816803F11800012C08D05C69BC
:10A0D00034B19B690C3003F6FF736FF30B03194423
:10A0E00030BC00F003B80000F03700202DE9F0414B
:10A0F0000D46014616468A680020012A0CD0012729
:10A10000A52A12D0AA2A20D0AC2A1CD10C46284657
:10A1100000F0BAFBB0B91DE011494969012912D11B
:10A120002846BDE8F041FFF7B1BE28460D4600F0D5
:10A13000ABFB040006D1284600F096FA002000F0A0
:10A1400011FC20463760BDE8F0812846BDE8F041AB
:10A15000FFF70ABF21462846FFF706FFF2E7000097
:10A16000F03700202DE9F05F15460C004FF0010B91
:10A1700058D0924F904E94F800C0D7E91410B2789E
:10A18000BB6C4FF4805A4FF00009BCF1070F7DD231
:10A19000DFE80CF07C0436EBE77CF100A16871B3DA
:10A1A000854B0D051B6902D045189D423AD151459A
:10A1B0002FD8002A6BD00144994268D8F96CB96451
:10A1C000A1683865796438637178491C01F003012E
:10A1D0007170A6F80490B168491CB160A168F2687A
:10A1E00001F6FF711044090B754A00F041F900288F
:10A1F0007ED0B068401EB0600520BDE8F09F11E041
:10A200006960B86CA860002AD4D0A168B1F5807FDD
:10A2100001D90420F1E7386D7A6D0844801A7A6C10
:10A22000904201D90320E8E7644A60684832FDF7AC
:10A23000A3FEB864386DA268DFF888A110443865C1
:10A240006860B86CA860B088A268B8461118FF2989
:10A2500005D8777861680AEB072318443FE0C0F51A
:10A26000807173788FB20AEB032210443A4661681A
:10A27000FBF73CF9B088384481B2B180A068C01BBC
:10A28000A060606838444746606001E091E070E09B
:10A29000D8F83000F268C91C1044B268521CB26091
:10A2A00073788A080AEB0321454B00F043F9E8B3C1
:10A2B000B068401EB060F86CB864786D386568604E
:10A2C000F86CA8607078401C00F003007070A6F86D
:10A2D0000490A268002A6AD00AEB00206168FBF7AC
:10A2E00005F92089B18808440104B080090C00E018
:10A2F0002CE05CD0D8F85420D8F83000D8F844309E
:10A30000821A0A4444469A4251D3F268C91C104446
:10A31000B268521CB26073788A080AEB0321284B9A
:10A3200000F008F9C0B1B068401E00E00FE0B06076
:10A33000E06CA064606D20656860E06CA860707877
:10A34000401C00F003007070A6F804902FE0B18864
:10A35000386B08443863B5E7B188206B0844206344
:10A36000EDE76960B86CA86021E07A6C081A904249
:10A3700002D0082041E716E0C7F84490FB640020B3
:10A38000796500F0EFFA386D3169884202D00EE04D
:10A3900000F042FBB0680028FAD10A48B03800F05B
:10A3A000A7F9834603E0AB60386DC5E900A05846C5
:10A3B00023E70220F5E70000002C0020F037002002
:10A3C000B1810700302E00200B4810B5006828B975
:10A3D0000A480068C00A10F0010F05D00848816DD6
:10A3E000012903D0002010BD012010BD002181658E
:10A3F000084600F0B7FAF7E70004004010050050E7
:10A40000F0370020F0B54FF010235C694FF4405353
:10A410009B68E71AA7F5C047874219D3134C13600E
:10A42000A4F1180300251E6A012E06D01D615D618E
:10A430006560A56020600020F0BD266806F6FF7606
:10A440006FF30B06A7EB060C0127604505D909B190
:10A450000420F0BDC3E90475EAE7C3E904571168B5
:10A46000024C31440C341160E2E70000083800204F
:10A470002DE9FF410E46214904461546086800278C
:10A4800042071BD5820703D50A2004B0BDE8F0813E
:10A4900040F0010008608846B2B22B4621461848B9
:10A4A000FEF73CFBD8F80010070002D021F00101B4
:10A4B00001E041F00101C8F800101DE0200501D0C5
:10A4C0000620E2E7C4F30F38204600F0BBFB04F59A
:10A4D0008054761EF8D17DB10A480168D0E9022087
:10A4E000CDE90220CDE90015200BADF80880ADF8CC
:10A4F0000A0000216846A8473846C6E7982C002085
:10A50000F42C0020A8CF070010B50100074C4FF035
:10A51000000009D0FEF750FB18B9054802F01EF8FC
:10A5200008B1082010BD0421216010BD982C002026
:10A530004D8C07002DE9FF4116461F4A05461C4673
:10A5400010680027430719D5830703D50A2004B0F4
:10A55000BDE8F08140F00100106090460A46B3B2B9
:10A56000294616480094FEF731FB0700EFD1D8F8D2
:10A57000001041F00101C8F8001019E031B12DB10F
:10A5800041EA0500800703D00620E0E70320DEE76C
:10A5900086B13246284600F06DFB4CB10020CDE973
:10A5A0000250CDE900040146ADF80C606846A047B2
:10A5B0003846CCE70420CAE7982C0020F42C002071
:10A5C00038B50020009000F0A7F96846FFF774FD49
:10A5D000012400B10094FFF7F7FE08B100940EE0EB
:10A5E000009860B9FFF7A8FC48B1FFF7A5FC20B1BF
:10A5F0004FF440508068FFF74FFA002038BD154BEC
:10A60000154A05210020FDF75FF908B1FDF7AAF80A
:10A61000114A142178320820FDF716F908B1FDF728
:10A62000A1F80E48FFF7A6FB01210D48FDF732FF08
:10A6300008B1FDF797F80B490120FEF77DF800F00F
:10A64000D5F90028DAD100F0D7F800BFFDF7DCF823
:10A65000FCE70000B1780700CC340020A0860100A0
:10A6600098CF07007C2C00200021016041608160B0
:10A67000024801634163016141617047F037002086
:10A680001FB5054B01AC92081B6A009384E80700D4
:10A69000684618DF04B010BDB8CF07001FB58908A1
:10A6A000002201AB009283E80700684618DF04B07F
:10A6B00010BD00001FB59208930502D0092004B018
:10A6C00010BD044B1B6800930392CDE9011068464E
:10A6D00018DFF4E7B8CF07001FB5044B0FCB8DE8A8
:10A6E0000F00684618DF04B010BD0000C8CF070097
:10A6F0002DE9F041044690F83D000125DFF8E480A3
:10A70000032808D00A25384E7069E0B101281DD011
:10A710000A20BDE8F081334E34481C3633463060A1
:10A7200020207060D8E903120520FFF7CEF900B1B0
:10A730000A25202204F13F013068FAF7FBFE0028C9
:10A74000E1D00525DFE72848183001E0264824300D
:10A750000027012D10D08760476007602248202124
:10A760003830FAF7DCFE2048FF22B2215C30FAF7DD
:10A77000CFFE1F4C37632DE094F8251071B10129ED
:10A780000ED002290ED003290FD00A2594F82510E7
:10A7900081B1022911D0032911D10EE0012102E07B
:10A7A000A52103E0AA218160F0E7AC218160A16AC4
:10A7B0007163EBE76168B16001E06168F160B16C01
:10A7C0004160D8F810100160C8E72046FFF7BAF9D9
:10A7D00000F022F9074800F0C5F81128F5D0284606
:10A7E00097E70000002C0020F037002030320020D6
:10A7F000A086010099AE070070B50120FFF784FE26
:10A8000000281BD10E4D0F4CA860A06BA8B1FDF71E
:10A81000D7FC90B1206A50B9A06940B1084A002124
:10A820000C322861FFF7EEFD0120A87005E0E06A18
:10A8300018B9A06908B1606AF0E7002070BD000097
:10A84000002C0020F037002030B40C780D4B012C88
:10A8500001D0062C08D10C79012C04D0022C02D096
:10A86000072030BC70471C701B78012B03D0022BD3
:10A8700004D00520F5E730BCFFF798BB30BCFFF7EC
:10A8800071BC0000002C00202DE9F04703461D4854
:10A8900040F6FF75066B426B3146541A04F6FF749E
:10A8A0006FF30B0405EB940506EB03086FF30B0540
:10A8B00006F5805622B1914202D10020BDE8F08712
:10A8C00081462A4641463046FFF7F4FE0028F5D17E
:10A8D0002A4641463046FFF7D3FE0700EED12E440C
:10A8E000A844A54201D9002400E0641BD9F8341023
:10A8F0000020091BC9F8301000F034F8002CE0D11A
:10A900003846DBE7F0370020002258210148FDF7E8
:10A9100033BB0000F437002070B50F4900204FF41E
:10A92000AE7508702A460D490D48FAF7DFFD0C4C4C
:10A930002068401C04D0FFF7E7FF216881420AD05D
:10A9400029460748FAF7EBFD01206060BDE870403A
:10A95000002000F007B870BD9C2C002000F007001C
:10A96000F037002070B5114C217809B1112070BD6D
:10A9700001212170606000220D48FFF779FD00255C
:10A9800088B9FFF7C1FF0B494FF4AE720860A1F51B
:10A99000AE70FAF7ABFD084B572208490448FFF7A1
:10A9A000C9FD0028E3D02570E0E700009C2C0020C2
:10A9B00000F00700F03700202984070094360020BB
:10A9C00070B50848084D401BC6080020044606E044
:10A9D00005EBC40040688047002802D1641CB442E3
:10A9E000F6D370BD4CD2070044D2070070B50848BA
:10A9F000084D401BC6080020044605E055F8340009
:10AA00008047002802D1641CB442F7D370BD000017
:10AA10004CD2070044D20700FCF7F6BE4907090EE6
:10AA2000002806DA00F00F0202F1E02282F8141D7D
:10AA300003E000F1E02282F8001400F01F0201217F
:10AA400091404009800000F1E020C0F88012C0F879
:10AA50000011704701790A4A01EB8101006802EB9D
:10AA6000C1024FF0FF31C0F80813D0F800120021E6
:10AA7000C0F80012C0F80015012082F822007047CB
:10AA8000A03200200179064A01EB8101006802EB47
:10AA9000C1010522C0F80025022081F8220070477C
:10AAA000A032002070B506460D4600791F4900EB24
:10AAB000800001EBC00494F8220008B1082070BDAA
:10AAC0000020C4E90023A06084F8250084F8240055
:10AAD000A87B84F82700687B10B1284601F072FE3D
:10AAE000296840F20C60890001F1A041C1F800071B
:10AAF0006968890001F1A041C1F80007D5E9001299
:10AB00003068C0F80815C0F80C25A968C0F82415ED
:10AB1000206828B13068297B000B40B2FFF77EFF28
:10AB2000012084F82200002070BD0000A032002027
:10AB30003EB5074D2C68AD6800948DF80110019268
:10AB400002958DF802300022694600F04BF83EBDB8
:10AB5000A4CE07003EB500250095069C8DF8011097
:10AB600002958DF8023001920CB1202200E0002203
:10AB7000694600F037F83EBD10B503460079184924
:10AB800000EB800001EBC004206860B11868000B86
:10AB900041B201F01F02012090404909890001F1F2
:10ABA000E021C1F880011846FFF754FF94F8270010
:10ABB00088B9196840F20230D1F80815890001F10E
:10ABC000A041C1F800071968D1F80C15890001F1FE
:10ABD000A041C1F80007002084F8220010BD000049
:10ABE000A032002030B40379084C03EB830304EB5C
:10ABF000C304930702D030BC062070470068134698
:10AC00000A460146204630BC01F0A7BFA032002012
:10AC100030B541EA4201DDE9034541EA83018000A4
:10AC200041EA042100F1A04041EA0541C0F80017C3
:10AC300030BD0000012181400148016070470000E3
:10AC400008050050094A0221116009490B68002BD0
:10AC5000FCD0064B1B1D186008680028FCD00020A3
:10AC6000106008680028FCD07047000004E501402F
:10AC700000E4014070B50C4D01232B600B4C2368A0
:10AC8000002BFCD0002307E051F8236040F823603C
:10AC90002668002EFCD05B1C9342F5D30020286070
:10ACA00020680028FCD070BD04E5014000E40140AC
:10ACB0004058002800D00120704708B500224250BB
:10ACC0004058009008BD000070B5334D0446008820
:10ACD0002E88502855D017DC112829D00ADC0228EC
:10ACE00035D0102805D1A0882880A86820F002005F
:10ACF000A86070BD132824D01428FAD10023A0889E
:10AD00001A46194686DF0DE0512824D0522832D049
:10AD100055283CD05628ECD1A0790028E9D1132140
:10AD2000304676DF0028E4D0BDE87040FCF71ABD5D
:10AD3000FCF7D6FC08B1FCF715FD4FF6FF70288034
:10AD400070BD00231A46852130467FDFEAE70021E7
:10AD5000304667DFE6E7A0790028F1D021460F48AA
:10AD600000F0D8F80028EBD004F10801BDE87040ED
:10AD70000A4800F015B80023A0881A461946A9DF32
:10AD8000D0E72146BDE87040044800F00DB9A08826
:10AD90001721ADDFC6E70000602C002050340020F2
:10ADA00010B586B0044600200090019002900390F8
:10ADB000049005900B7B3748072B67D2DFE803F040
