:020000040000FA
:1000000048200020150400001D0400001F0400000B
:10001000210400002304000025040000000000006B
:1000200000000000000000000000000027040000A5
:1000300029040000000000002B0400002D04000033
:10004000A10400002F0400002F0400002F04000072
:100050002F0400002F0400002F0400002F040000D4
:100060002F0400002F0400002F0400002F040000C4
:100070002F0400002F0400002F0400002F040000B4
:100080002F040000F90400002F0400002F040000DA
:100090001D0500002F0400002F0400002F040000A5
:1000A0002F0400002F0400002F0400002F04000084
:1000B0002F0400002F0400000000000000000000DA
:1000C0002F0400002F0400002F0400002F04000064
:1000D0002F0400002F0400002F0400000000000087
:1000E0000000000000000000000000000000000010
:1000F0000000000000000000000000000000000000
:1001000000000000000000000000000000000000EF
:1001100000000000000000000000000000000000DF
:10040000DFF80CD000F018F800480047F50C0000A9
:10041000482000200648804706480047FEE7FEE7E0
:10042000FEE7FEE7FEE7FEE7FEE7FEE7FEE7FEE7A4
:100430002105000001040000064C074D06E0E068BD
:1004400040F0010394E8070098471034AC42F6D31B
:10045000FFF7DAFF401000006010000000F01F02FC
:10046000012191404009800000F1E020C0F8801295
:10047000704700F01F02012191404009800000F107
:10048000E020C0F80011704700F01F0201219140E8
:100490004009800000F1E020C0F800127047000021
:1004A0002DE9F0414FF48077384600F033FC012409
:1004B000104EA50748B1384600F033FC0120C5F8BE
:1004C00008037470002000F0BBF94FF482773846BF
:1004D00000F020FC00280BD0384600F022FC02205F
:1004E000C5F80803B470BDE8F041012000F0A8B9D8
:1004F000BDE8F0813000002007480021C0F840111D
:10050000C0F84411C0F84811C0F84C11C0F80011EF
:10051000C0F8041100F04CBD0010014000F0E4BC34
:10052000F0B598480023021D01780125101D4FF0F9
:100530008056062907D11478240704D10478C4F31F
:100540000314032C02D0062904D00FE08F4F8E4CE9
:100550007C670EE01478240708D10478C4F30314F0
:10056000032C06D0042C04D0052C02D0062907D079
:100570000EE0D6F84442864FC4F342343C6002E0B9
:100580001478240704D10478C4F30314032C02D094
:10059000062906D011E07F4C276827F08077276076
:1005A0000EE01478240708D10478C4F30314032C54
:1005B00006D0042C04D0052C02D006290AD011E064
:1005C0004FF08044C4F80C31C4F81031704C241F33
:1005D000236002E01478240704D10478C4F30314E0
:1005E000032C02D0062905D00CE0694F03246437A0
:1005F0003C600AE01478240704D10478C4F303149F
:10060000032C02D006290DD014E0634F05243C6072
:10061000614C78342560604C083423603F243F1DD2
:100620003C6002E01478240704D10478C4F3031476
:10063000052C02D0062957D068E058490968584A65
:1006400011605649091D0968121D1160534908318E
:100650000968121D116051490C310968121D1160A1
:100660004E4910310968121D11604C491431096856
:10067000121D1160494918310968494A2032116038
:1006800046491C310968121D11604449203109682E
:10069000121D1160414924310968121D11603F4942
:1006A00028310968121D11603C492C310968121D5E
:1006B00011603A4930310968394A4032116037498E
:1006C00034310968121D1160344938310968121D2E
:1006D000116032493C310968121D11602F494031C7
:1006E0000968121D116002E0117809070ED1007827
:1006F000C0F30310032803D0042801D0052805D136
:10070000D6F85802274900F04F0008602148743895
:10071000016841F470010160BFF34F8FBFF36F8F29
:100720004FF01021D1F80002002803DBD1F80402B9
:10073000002822DA1C4A15601C480468002CFCD0F2
:100740001524C1F800420568002DFCD0C1F8044210
:1007500001680029FCD0136001680029FCD0BFF3B8
:100760004F8F0C48F0380168114A01F4E0611143E1
:100770000160BFF34F8F00BFFDE70F490D480860D0
:10078000F0BD0000E00F00F00DF0ADBA00C0074072
:100790003C050040FCED00E0105600400404001051
:1007A00020C50040E40E004004E5014000E40140A3
:1007B0000400FA050090D0032C00002010B5044678
:1007C00000F076F90648007800F0AAF9002000F061
:1007D000A7F9204600F0A4F9BDE8104000F084B964
:1007E0000400002002E008C8121F08C1002AFAD144
:1007F00070477047002001E001C1121F002AFBD1A1
:1008000070470000BFF34F8F05480168054A01F4A7
:10081000E06111430160BFF34F8F00BFFDE70000AF
:100820000CED00E00400FA050EB500210091CDE9C1
:1008300001106A4644F20100FFF7E4FF0EBD00001C
:1008400070B5084C050009D010342168002907D084
:1008500008682060496828468847F6E70834F4E7C6
:1008600070BD0000300000202DE9F05F264841688F
:10087000F1B3DFF898B00E688146DBF80040876876
:100880008078E11B21F07F45ED1CB0B9DFF8808056
:100890004FF48030C8F84403C8F804031120FFF770
:1008A000DDFD1120FFF7E5FD4FF0010AC8F800A0BB
:1008B0002F2000F085FA89F802A0B54200D2354613
:1008C000124BE8193C3320F07F401860DBF8001031
:1008D0005A46091B21F07F41001B20F07F40C91CB4
:1008E00081420FD9106818602F2000F069FA00E0EB
:1008F00004E0BDE8F05F1120FFF7C6BDBDE8F05F82
:1009000000F0D4BABDE8F09F0C00002004150140AF
:100910000010014008B5324902780A7042684A6006
:10092000406801788DF8001000798DF80100684664
:1009300000F0B6F8AE20FFF741FF2020FFF73EFFA2
:100940001020FFF73BFFB020FFF738FFC820FFF76C
:1009500035FF0020FFF732FF1020FFF72FFF402068
:10096000FFF72CFF8120FFF729FF7F20FFF726FFED
:10097000A120FFF723FFA620FFF720FFA820FFF705
:100980001DFF3F20FFF71AFFA420FFF717FFD3201A
:10099000FFF714FF0020FFF711FFD520FFF70EFF30
:1009A000F020FFF70BFFD920FFF708FF2220FFF709
:1009B00005FFDA20FFF702FF1220FFF7FFFEDB2022
:1009C000FFF7FCFE2020FFF7F9FE8D20FFF7F6FE73
:1009D0001420FFF7F3FEAF20FFF7F0FE002008BD64
:1009E0000400002010B5002000F02EF8054C204631
:1009F00000F0A0F9FF2000F027F82046BDE81040E5
:100A000000F098B940420F000E4910B50A784C78B2
:100A10000023A24212D0521CD2B20A70022A00D184
:100A20000B70084A0B78183252F82320026088684D
:100A3000104420F07F408860012010BD036000203A
:100A400010BD00000C0000202DE9F041134F0646B8
:100A5000002400BF04F1B000C0B2FFF7AFFE0020D9
:100A6000FFF7ACFE1020FFF7A9FE002500F020F8EC
:100A7000387800F055F8402000F052F8304600F089
:100A80004FF800F031F86D1CEDB2802DEED3641CF0
:100A9000E4B2082CDED3BDE8F081000004000020A1
:100AA000024902780A7040784870704700000020C0
:100AB00010B50C4C207800F0E3F9607800F0E0F914
:100AC0002078012100F0E6F96078012100F0E2F9D8
:100AD0006078002100F0DEF92078BDE810400021A8
:100AE00000F0D8B90000002010B50C4C207800F0C0
:100AF000C7F9607800F0C4F92078002100F0CAF945
:100B00006078002100F0C6F92078012100F0C2F9D8
:100B10006078BDE81040032100F0A9B90000002072
:100B200070B51A4C0646207800F0AAF9607800F0FB
:100B3000A7F900253006607801D5012100E00021E9
:100B400000F0A8F92078012100F0A4F92078002114
:100B500000F0A0F970066D1C060EEDB2082DE9D369
:100B60006078032100F083F92078012100F092F9E8
:100B7000074960780A68C24012F0010FFAD1207864
:100B8000BDE87040002100F085B9000000000020A1
:100B9000100500502DE9F043264CA4F110092278ED
:100BA000D9F8048099F80350404694F801C0D9F868
:100BB000086031E002EB42036168521C01EBC301A3
:100BC000A378D2B2934200D100220B78022B02D03C
:100BD000032B21D11DE003464F68194603E0B942BB
:100BE00003D00B46C969B9B1F9E7A9B18B4205D168
:100BF000C06918B9104E0125B56000260F68C96993
:100C0000D96149B10B683B440B6005E00174C069D0
:100C100000E000210028F9D19445CBD1C9E90106B3
:100C200089F80350404502D00120BDE8F083002040
:100C3000FBE700001C000020001001402DE9F041FE
:100C40002A4F0446002607F11005D7F804803EE03D
:100C500002D02046E4691DE02878696800EB400274
:100C6000401CC0B201EBC2012870AA78904200D1AA
:100C70002E700A784868012A2BD1027C4ABB8A6808
:100C80004260CA6882600A69C26049698161F97814
:100C900001B146604368BA68DFF854C0991A21F080
:100CA0007F41614502D28268114406E0D11A826810
:100CB00021F07F418A4202D9511A016000E00660AA
:100CC0004660012186600174C66100F053F9002C72
:100CD000BED1287869788842BED17968414502D072
:100CE0000120BDE8F0810020FBE700000C0000209F
:100CF000FFFF7F001CB578208DF8000004480190AC
:100D00006846FFF707FE00BFFFF76CFEFCE7000038
:100D10003810000000F180400068002800D0012059
:100D2000704708B500F18040002101600068009024
:100D300008BD000000283ED01F49204A096800BFB6
:100D400000BF00BF00BF00BF00BF00BF00BF914297
:100D50002FD000BF00BF00BF00BF00BF00BF00BF5B
:100D600000BF00BF00BF00BF00BF00BF00BF00BF8B
:100D700000BF00BF00BF00BF00BF00BF00BF00BF7B
:100D800000BF00BF00BF00BF00BF00BF00BF00BF6B
:100D900000BF00BF00BF00BF00BF00BF00BF00BF5B
:100DA00000BF00BF00BF00BF00BF00BF00BF00BF4B
:100DB00000BF401EC3D170472C0000200024F40067
:100DC00000283ED01F49204A096800BF00BF00BF6D
:100DD00000BF00BF00BF00BF00BF91422FD000BFC7
:100DE00000BF00BF00BF00BF00BF00BF00BF00BF0B
:100DF00000BF00BF00BF00BF00BF00BF00BF00BFFB
:100E000000BF00BF00BF00BF00BF00BF00BF00BFEA
:100E100000BF00BF00BF00BF00BF00BF00BF00BFDA
:100E200000BF00BF00BF00BF00BF00BF00BF00BFCA
:100E300000BF00BF00BF00BF00BF00BF00BF401E1B
:100E4000C3D170472C0000200024F40030B541EAE3
:100E50004201DDE9034541EA8301800041EA0421C2
:100E600000F1A04041EA0541C0F8001730BD1CB5B3
:100E700000220B46009211460192FFF7E7FF1CBDCE
:100E80001CB5002100910B46012201911146FFF78C
:100E9000DDFF1CBD0122824011B103480260704792
:100EA0000148001DFAE700000805005070B5012652
:100EB00070044FF0E0210025C1F88001084C40107B
:100EC000C4F84803C4F8080366602F20FFF778FFD2
:100ED000A660044C2F20A560FFF772FFA57070BDBF
:100EE000001001400C0000202DE9F84F204C002597
:100EF0006846D4E901B6FFF787FD8046FFF74AFE52
:100F00000746A946B8F1000F25D00023009ACC4629
:100F1000606819E007680146974202D9BA1A026070
:100F200014E0C1F800C0D1F80C80D21BC8693B4462
:100F30008A46B8F1000F07D0F71827F07F47C1E9BC
:100F40000178CAF81C500D460028E3D1606028469D
:100F5000FFF774FE04E02846FFF770FE00B917B1F2
:100F60005846FFF781FC84F80390BDE8F88F000035
:100F70000C0000200D4B10B5596831B102680C68A7
:100F8000A24204D8A21A0A60C161586010BD0B4683
:100F900003E00B46C969121B21B10C689442F8D3D7
:100FA000A41A0C600260C161D86110BD0C00002061
:100FB0002DE9F0411D4D6C68002C35D01C480027F0
:100FC0000068A968B846401A20F07F462068B04201
:100FD00015D82246361A0744E469107C68B182F8B5
:100FE0001080EB6833B1D2E90501984728B1FFF7CB
:100FF0001BFC02E0D2E905108847002CE6D12978D5
:101000006878814206D1401CC0B26870022801D1C4
:1010100085F8018005486978183040F82170BDE8EE
:10102000F0411420FFF730BABDE8F0810C00002039
:1010300004150140111213141300000014000000E5
:10104000601000000000002030000000E4070000F5
:10105000901000003000002018200000F40700006D
:101060000000000000000000000000000000000080
:101070000000000000000000000000000000000070
:101080000000000000000000000000000090D003FD
:0400000500000401F2
:00000001FF
